:020000040800F2
:1000000000000220C1A00008AD9D0008B59D0008B9
:10001000BD9D0008C59D0008CD9D000800000000A2
:10002000000000000000000000000000D59D000856
:10003000E39D000800000000F19D0008019E0008FB
:1000400011A1000811A1000811A1000811A10008C8
:1000500011A1000811A1000811A1000811A10008B8
:1000600011A1000811A1000811A1000811A10008A8
:1000700011A1000811A1000811A1000811A1000898
:1000800011A1000811A1000811A1000811A1000888
:1000900011A1000811A1000811A1000811A1000878
:1000A00011A1000811A1000811A1000811A1000868
:1000B00011A1000811A1000811A1000811A1000858
:1000C00011A1000811A1000811A1000811A1000848
:1000D00011A1000811A1000811A10008E99E000863
:1000E00011A1000811A1000811A1000811A1000828
:1000F00011A1000811A1000811A1000811A1000818
:1001000011A1000811A1000811A1000811A1000807
:1001100011A1000811A1000811A1000811A10008F7
:1001200011A1000811A1000811A1000811A10008E7
:1001300011A10008000000000000000011A100084B
:1001400011A1000811A1000811A1000811A10008C7
:1001500011A1000811A1000811A1000811A10008B7
:1001600011A1000811A1000811A1000811A10008A7
:1001700011A1000811A1000811A100080000000051
:100180000000000011A100080000000000000000B5
:1001900011A10008000000000000000011A10008EB
:1001A00000000000000000000000000011A1000895
:1001B00011A1000811A1000811A1000811A1000857
:0401C00011A1000881
:1001D00010B5054C237833B9044B13B10448AFF381
:1001E00000800123237010BD840000200000000067
:1001F00064E0000808B5034B1BB103490348AFF3A3
:10020000008008BD000000008800002064E00008B5
:1002100001F0FF01102A2BDB10F0070F08D010F8B7
:10022000013B013A8B422DD010F0070F42B3F6D1BB
:10023000F0B441EA012141EA014122F007047FF0D4
:1002400000070023F0E80256083C85EA010586EA2B
:10025000010685FA47F5A3FA87F586FA47F6A5FA67
:1002600087F68EB9EED1F0BC01F0FF0102F0070273
:1002700032B110F8013B013A83EA010313B1F8D11E
:100280000020704701387047002D06BF35460338FF
:10029000073815F0010F07D1013015F4807F02BF38
:1002A000013015F4C03F0130F0BC0138704700BF89
:1002B00053B94AB9002908BF00281CBF4FF0FF31CD
:1002C0004FF0FF3000F06AB9ADF1080C6DE904CED3
:1002D00000F006F8DDF804E0DDE9022304B0704721
:1002E0002DE9F047089D0C46002B4ED194468C45D5
:1002F0008646B2FA82F262D94AB1C2F12003914035
:1003000020FA03F30CFA02FC194300FA02FE4FEA4A
:100310001C471FFA8CF6B1FBF7F44FEA1E4307FBAC
:10032000141143EA014304FB06F199420AD91CEB7C
:10033000030304F1FF3080F01281994240F20F81F3
:10034000023C6344591A1FFA8EF3B1FBF7F007FB26
:10035000101143EA014300FB06F69E420AD91CEB4A
:10036000030300F1FF3180F0FC809E4240F2F980EF
:10037000634402389B1B40EA044000211DB1D34076
:100380000022C5E90032BDE8F0878B4205D90DB1E6
:10039000C5E9000100210846F5E7B3FA83F1002919
:1003A00046D1A34202D39042C0F0F080861A64EB9B
:1003B00003030120002DE6D0C5E90063E3E7002A2E
:1003C00040F09080A1EB0C044FEA1C481FFA8CF718
:1003D0000121B4FBF8F64FEA1E4308FB164443EA3A
:1003E000044307FB06F0984208D91CEB030306F10F
:1003F000FF3402D2984200F2CD8026461C1A1FFA22
:100400008EF3B4FBF8F008FB104443EA044300FB0E
:1004100007F79F4208D91CEB030300F1FF3402D217
:100420009F4200F2B0802046DB1B40EA0640A5E771
:10043000C1F120068B4022FA06F71F4320FA06FC82
:1004400004FA01F343EA0C03F44000FA01F8380C13
:100450004FEA1349B4FBF0FE1FFA87FC00FB1E4471
:1004600049EA04440EFB0CF9A14502FA01F20AD94B
:100470003C190EF1FF3A80F08480A14540F2818062
:10048000AEF1020E3C44A4EB09041FFA83F9B4FB5D
:10049000F0F300FB134449EA044403FB0CFCA445BD
:1004A00007D93C1903F1FF3067D2A44565D9023B57
:1004B0003C4443EA0E40A0FB0293A4EB0C049C4294
:1004C000CE469C4651D34ED055B1B8EB0E0364EBEB
:1004D0000C0404FA06F6CB401E43CC40C5E9006488
:1004E000002150E7C2F1200320FA03F10CFA02FCCC
:1004F00024FA03F394400C434FEA1C4800FA02FE2E
:100500001FFA8CF7B3FBF8F008FB1031230C43EA19
:10051000014300FB07F1994208D91CEB030300F1EA
:10052000FF362CD299422AD9023863445B1AA4B20E
:10053000B3FBF8F108FB113344EA034401FB07F372
:10054000A34208D91CEB040401F1FF3613D2A342E5
:1005500011D902396444E41A41EA004139E70446FA
:10056000F0E6084606E7C845AED2B9EB020E63EBEB
:10057000070C0138A8E73146EDE7034699E7304616
:10058000D4E7D6467FE7634402384DE70646234664
:1005900008460FE7023E634430E700BF704700BFE4
:1005A00080B500AF002220210F480AF099F91E20E3
:1005B00009F022FE012220210B480AF091F9322095
:1005C00009F01AFE0122012108480AF089F90022E7
:1005D000022106480AF084F90122042103480AF0A6
:1005E0007FF900BF80BD00BF000802400004024048
:1005F00080B584B000AF78600022012122480AF063
:100600006FF90022042120480AF06AF90022022131
:100610001D480AF065F9012202211B480AF060F921
:100620000823FB731FE07B6803F08003002B05D0D9
:100630000122042114480AF053F904E000220421A5
:1006400011480AF04DF9002202210F480AF048F93A
:10065000012202210C480AF043F97B685B007B60B1
:10066000FB7B013BFB73FB7B002BDCD100220221D7
:1006700005480AF035F90122012103480AF030F952
:1006800000BF1037BD4680BD0004024080B584B075
:1006900000AF78600022012122480AF021F90122EE
:1006A000042120480AF01CF9002202211D480AF00A
:1006B00017F9012202211B480AF012F90823FB73E3
:1006C0001FE07B6803F08003002B05D0012204218A
:1006D00014480AF005F904E00022042111480AF048
:1006E000FFF8002202210F480AF0FAF80122022145
:1006F0000C480AF0F5F87B685B007B60FB7B013BF4
:10070000FB73FB7B002BDCD10022022105480AF0A1
:10071000E7F80122012103480AF0E2F800BF103790
:10072000BD4680BD0004024080B582B000AF0346E4
:10073000FB71FB791846FFF7A9FF00BF0837BD46DC
:1007400080BD80B582B000AF0346FB71FB791846CF
:10075000FFF74EFF00BF0837BD4680BD80B500AF34
:10076000B720FFF7EEFF5020FFF7DEFF0020FFF776
:10077000DBFFB820FFF7E5FF0020FFF7D5FF0020E3
:10078000FFF7D2FFB920FFF7DCFF0020FFF7CCFF17
:100790000020FFF7C9FFBA20FFF7D3FF1420FFF7AF
:1007A000C3FF4220FFF7C0FFBB20FFF7CAFF0320B3
:1007B000FFF7BAFF0020FFF7B7FFB920FFF7C1FF2F
:1007C0000120FFF7B1FF0020FFF7AEFFDE20FFF7AB
:1007D000B8FF0020FFF7A8FF0020FFF7A5FFC92002
:1007E000FFF7AFFF0220FFF79FFF2320FFF79CFFDB
:1007F000B720FFF7A6FF5020FFF796FF0020FFF776
:1008000093FFB820FFF79DFF0020FFF78DFF00202A
:10081000FFF78AFFB920FFF794FF0020FFF784FF5E
:100820000020FFF781FFBA20FFF78BFF2D20FFF795
:100830007BFF8220FFF778FFBB20FFF782FF0720B6
:10084000FFF772FF0020FFF76FFFB920FFF779FF76
:100850000120FFF769FF0020FFF766FFC920FFF7BF
:1008600070FF0220FFF760FF2320FFF75DFF642089
:1008700009F0C2FCCA20FFF764FF0120FFF754FF14
:100880002320FFF751FFCB20FFF75BFF1020FFF77E
:100890004BFF0520FFF748FFCC20FFF752FF052054
:1008A000FFF742FF1020FFF73FFFD020FFF749FF7F
:1008B0000020FFF739FF0020FFF736FFB120FFF7D8
:1008C00040FF1820FFF730FF0220FFF72DFFB22076
:1008D000FFF737FFA020FFF727FF0A20FFF724FFCD
:1008E000B320FFF72EFFA020FFF71EFF0C20FFF71D
:1008F0001BFFB420FFF725FF9020FFF715FF012015
:10090000FFF712FFB520FFF71CFF0020FFF70CFFD9
:100910000520FFF709FFB620FFF713FF0B20FFF7B5
:1009200003FFC020FFF700FFDE20FFF70AFF0320D0
:10093000FFF7FAFE0020FFF7F7FED620FFF701FFD2
:100940000120FFF7F1FE0020FFF7EEFEDB20FFF7AE
:10095000F8FE5820FFF7E8FE0020FFF7E5FEB7207D
:10096000FFF7EFFE4B20FFF7DFFE0220FFF7DCFE74
:100970002C20FFF7E6FE00BF80BD80B485B000AF3D
:10098000786008E00023FB7302E0FB7B0133FB731C
:10099000FB7B3B2BF9D97B685A1E7A60002BF1D187
:1009A00000BF00BF1437BD465DF8047B70470000F0
:1009B00080B582B000AF0346FB7100BF08480BF062
:1009C0005DF90346012BF9D1F91D4FF47A73012229
:1009D00003480AF060FE00BF0837BD4680BD00BF77
:1009E0002408002080B584B002AFFF23FB710023F0
:1009F000BB7100BF09480BF041F90346012BF9D147
:100A0000BA1DF91D4FF47A730093012303480AF0CD
:100A100085FFBB7918460837BD4680BD24080020F5
:100A200080B582B000AF0346FB7100224FF48051C5
:100A3000094809F055FF0020FFF7BAFFFB79184677
:100A4000FFF7B6FF01224FF48051034809F048FF39
:100A500000BF0837BD4680BD0004024080B582B0AB
:100A600000AF0346FB7100224FF48051094809F0A2
:100A700037FF8020FFF79CFFFB791846FFF798FFB0
:100A800001224FF48051034809F02AFF00BF0837C4
:100A9000BD4680BD0004024080B582B000AF002298
:100AA0004FF480510A4809F01BFFC020FFF780FF78
:100AB000FFF798FF0346FB7101224FF48051044871
:100AC00009F00EFFFB7918460837BD4680BD00BF10
:100AD0000004024080B582B000AF00224FF4805184
:100AE0000A4809F0FDFE4020FFF762FFFFF77AFF9A
:100AF0000346FB7101224FF48051044809F0F0FED7
:100B0000FB7918460837BD4680BD00BF000402408F
:100B100080B582B000AF03460A46FB711346BB7135
:100B2000FB791846FFF77CFFBB791846FFF796FF65
:100B300000BF0837BD4680BD80B500AF01224FF42D
:100B400000710D4809F0CCFE0A2009F055FB002287
:100B50004FF40071084809F0C3FE322009F04CFB45
:100B600001224FF40071044809F0BAFE322009F066
:100B700043FB00BF80BD00BF0004024080B500AF52
:100B800000F0D2F800F040F800F069F800F0ECF85E
:100B900000F004F900F018F900F02CF900F044F925
:100BA00000F05CF900F086F901F047FA00F080FAF5
:100BB00000F052FA00F092FA00F0F6F900F0D0FAE4
:100BC00000F0A2FA00F0B6FA4FF4A0614FF4C8703A
:100BD00000F0DCFAA02000F03CFBA02000F06DFB50
:100BE000182000F08AFB0A2000F0A7FB0C2000F080
:100BF000C1FB022000F0D2FB00F0A2F900F080FD62
:100C000000F094FD00BF80BD80B500AF0621052037
:100C1000FFF77EFF27210620FFF77AFF0421072038
:100C2000FFF776FF27210820FFF772FF0421092034
:100C3000FFF76EFF27210A20FFF76AFF0120FFF769
:100C4000EFFE0020FFF70AFF0A20FFF796FE802044
:100C5000FFF704FF0A2009F0CFFA00BF80BD80B57E
:100C600082B000AF2921E020FFF752FF0321E120ED
:100C7000FFF74EFF40F20D33FB80FB88023BFB8009
:100C8000FB88DBB21946E220FFF742FFFB881B0A14
:100C90009BB2DBB21946E320FFF73AFF0121E420C3
:100CA000FFF736FF00F01EF80A2009F0A5FA00BF92
:100CB0000837BD4680BD80B500AFFFF70BFF034688
:100CC0005BB2002BF9DB00BF00BF80BD80B500AF79
:100CD000FFF700FF034603F00803002BF8D100BF25
:100CE00000BF80BD80B582B000AFFFF7F3FE0346C2
:100CF000FB71FB7903F00403002BF6D000BF00BFAB
:100D00000837BD4680BD80B582B000AFFFF7E2FE78
:100D10000346FB71FB7903F00803002BF6D100BFFB
:100D200000BF0837BD4680BD80B582B000AF00204F
:100D3000FFF776FEFFF7B0FE0346FB71FB7943F049
:100D40000103FB71FB791846FFF788FEFFF7A4FE4D
:100D50000346FB71FB7903F00103002BF6D100BFC2
:100D600000BF0837BD4680BD80B582B000AF01200E
:100D7000FFF756FEFFF790FE0346FB71FB7923F069
:100D80001003FB71FB7923F00803FB71FB79184614
:100D9000FFF764FE00BF0837BD4680BD80B582B056
:100DA00000AF0120FFF73CFEFFF776FE0346FB7124
:100DB000FB7943F00203FB71FB791846FFF74EFE07
:100DC00000BF0837BD4680BD80B582B000AF0120AE
:100DD000FFF726FEFFF760FE0346FB71FB7923F069
:100DE0000103FB71FB791846FFF738FE00BF083797
:100DF000BD4680BD80B582B000AF0220FFF710FE77
:100E0000FFF74AFE0346FB71FB7903F07F03FB719A
:100E1000FB7923F04003FB71FB791846FFF71EFEB8
:100E200000BF0837BD4680BD80B582B000AF02204C
:100E3000FFF7F6FDFFF730FE0346FB71FB7923F069
:100E40000403FB71FB7923F00203FB71FB79184665
:100E5000FFF704FE00BF0837BD4680BD80B582B0F5
:100E600000AF0320FFF7DCFDFFF716FE0346FB7122
:100E7000FB7923F00403FB71FB791846FFF7EEFDC5
:100E800000BF0837BD4680BD80B582B000AF0320EB
:100E9000FFF7C6FDFFF700FE0346FB71FB7943F049
:100EA0000403FB71FB791846FFF7D8FD00BF083734
:100EB000BD4680BD80B582B000AF0320FFF7B0FD16
:100EC000FFF7EAFD0346FB71FB7923F00203FB7198
:100ED000FB7923F00103FB71FB791846FFF7BEFD98
:100EE00000BF0837BD4680BD80B582B000AF10207E
:100EF000FFF796FDFFF7D0FD0346FB71FB7963F02A
:100F00007F03FB71FB791846FFF7A8FD00BF083788
:100F1000BD4680BD80B582B000AF1020FFF780FDD8
:100F2000FFF7BAFD0346FB71FB7923F01003FB7159
:100F3000FB791846FFF792FD00BF0837BD4680BD1C
:100F400080B582B000AF1020FFF76AFDFFF7A4FD67
:100F50000346FB71FB7923F00803FB71FB7923F057
:100F60000403FB71FB791846FFF778FD00BF0837D3
:100F7000BD4680BD80B582B000AF1120FFF750FDA7
:100F8000FFF78AFD0346FB71FB7923F00803FB7131
:100F9000FB7923F00403FB71FB791846FFF75EFD34
:100FA00000BF0837BD4680BD80B582B000AF1220BB
:100FB000FFF736FDFFF770FD0346FB71FB7903F089
:100FC0007F03FB71FB791846FFF748FD00BF083728
:100FD000BD4680BD80B582B000AF1220FFF720FD76
:100FE000FFF75AFD0346FB71FB7943F04003FB71A9
:100FF000FB791846FFF732FD00BF0837BD4680BDBC
:1010000080B582B000AF1220FFF70AFDFFF744FD64
:101010000346FB71FB7943F02003FB71FB79184613
:10102000FFF71CFD00BF0837BD4680BD80B582B00C
:1010300000AF1220FFF7F4FCFFF72EFD0346FB7113
:10104000FB7923F02003FB71FB791846FFF706FDBF
:1010500000BF0837BD4680BD80B582B000AF12200A
:10106000FFF7DEFCFFF718FD0346FB71FB7923F069
:101070001003FB71FB791846FFF7F0FC00BF08373F
:10108000BD4680BD80B582B000AF1220FFF7C8FC1E
:10109000FFF702FD0346FB71FB7923F00803FB71A8
:1010A000FB791846FFF7DAFC00BF0837BD4680BD64
:1010B00080B582B000AF1220FFF7B2FCFFF7ECFC66
:1010C0000346FB71FB7943F00803FB71FB7918467B
:1010D000FFF7C4FC00BF0837BD4680BD80B582B0B5
:1010E00000AF1220FFF79CFCFFF7D6FC0346FB7114
:1010F000FB7923F00703FB71FB791846FFF7AEFC81
:1011000000BF0837BD4680BD80B582B000AF132058
:10111000FFF786FCFFF7C0FC0346FB71FB7903F089
:101120007F03FB71FB791846FFF798FC00BF083777
:10113000BD4680BD80B582B000AF1320FFF770FCC4
:10114000FFF7AAFC0346FB71FB7923F04003FB7118
:10115000FB791846FFF782FC00BF0837BD4680BD0B
:1011600080B582B000AF1320FFF75AFCFFF794FC64
:101170000346FB71FB7923F02003FB71FB791846D2
:10118000FFF76CFC00BF0837BD4680BD80B584B05A
:1011900000AF03460A46FB801346BB80FB88072B43
:1011A00024D81420FFF73CFC0020FFF757FC152043
:1011B000FFF736FCFB88DBB21846FFF74FFCBB8815
:1011C000DBB2013BFB731A20FFF72AFCFB7B1846BE
:1011D000FFF744FCBB88013B1B12FB731B20FFF78E
:1011E0001FFCFB7B1846FFF739FC2EE0FB88DB0871
:1011F0009BB2DBB2013BFB731420FFF711FCFB7BBE
:101200001846FFF72BFCFB88DBB203F00703FB73E8
:101210001520FFF705FCFB7B1846FFF71FFCBB887A
:10122000DBB2013BFB731A20FFF7FAFBFB7B18468E
:10123000FFF714FCBB88013B1B12FB731B20FFF75D
:10124000EFFBFB7B1846FFF709FC00BF1037BD46DC
:1012500080BD80B584B000AF0346FB80FB88072BC0
:101260000ED81620FFF7DCFB0020FFF7F7FB172056
:10127000FFF7D6FBFB88DBB21846FFF7EFFB18E061
:10128000FB88DB089BB2DBB2013BFB731620FFF748
:10129000C7FBFB7B1846FFF7E1FBFB88DBB203F0E3
:1012A0000703FB731720FFF7BBFBFB7B1846FFF719
:1012B000D5FB00BF1037BD4680BD80B584B000AF00
:1012C0000346FB80FB88072B06D81820FFF7A8FBF6
:1012D0000020FFF7C3FB0CE0FB88DB089BB2DBB20E
:1012E000013BFB731820FFF79BFBFB7B1846FFF7C6
:1012F000B5FB00BF1037BD4680BD80B584B000AFE0
:101300000346FB80FB88072B06D81920FFF788FBD4
:101310000020FFF7A3FB0CE0FB88DB089BB2DBB2ED
:10132000013BFB731920FFF77BFBFB7B1846FFF7A4
:1013300095FB00BF1037BD4680BD80B584B000AFBF
:101340000346FB80FB88DBB2013BFB731C20FFF7ED
:1013500067FBFB7B1846FFF781FB1D20FFF760FB57
:10136000FB7B1B12DBB21846FFF778FB00BF103780
:10137000BD4680BD80B584B000AF0346FB80FB88CE
:10138000DBB2013BFB731E20FFF74AFBFB7B1846D9
:10139000FFF764FB00BF1037BD4680BD80B584B049
:1013A00000AF0346FB80FB88DBB2013BFB731F20D1
:1013B000FFF736FBFB7B1846FFF750FB00BF1037EB
:1013C000BD4680BD80B582B000AF78607B68DBB27F
:1013D00019462020FFF79CFB7B681B0ADBB21946ED
:1013E0002120FFF795FB7B681B0CDBB219462220FE
:1013F000FFF78EFB7B681B0EDBB219462320FFF73D
:1014000087FB00BF0837BD4680BD80B582B000AF06
:101410000346FB80FB88DBB219462420FFF778FBEC
:10142000FB881B0A9BB2DBB219462520FFF770FB35
:1014300000BF0837BD4680BD80B582B000AF03460F
:101440000A46FB801346BB80FB88DBB21946262088
:10145000FFF75EFBFB881B0A9BB2DBB21946272015
:10146000FFF756FBBB88DBB219462820FFF750FB7D
:10147000BB881B0A9BB2DBB219462920FFF748FB49
:1014800000BF0837BD4680BD80B582B000AF0346BF
:101490000A46FB801346BB80FB88DBB219462A2034
:1014A000FFF736FBFB881B0A9BB2DBB219462B20E9
:1014B000FFF72EFBBB88DBB219462C20FFF728FB79
:1014C000BB881B0A9BB2DBB219462D20FFF720FB1D
:1014D00000BF0837BD4680BD80B582B000AF7860E0
:1014E0007B68DBB219462E20FFF712FB7B681B0AD4
:1014F000DBB219462F20FFF70BFB7B681B0CDBB21E
:1015000019463020FFF704FB7B681B0EDBB219463F
:101510003120FFF7FDFA00BF0837BD4680BD80B51A
:1015200082B000AF0346FB80FB88DBB21946322055
:10153000FFF7EEFAFB881B0A9BB2DBB21946332099
:10154000FFF7E6FA00BF0837BD4680BD80B582B020
:1015500000AF03460A46FB801346BB80FB88DBB224
:1015600019463420FFF7D4FAFB881B0A9BB2DBB282
:1015700019463520FFF7CCFABB88DBB21946362076
:10158000FFF7C6FABB881B0A9BB2DBB219463720AD
:10159000FFF7BEFA00BF0837BD4680BD80B582B0F8
:1015A00000AF03460A46FB801346BB80FB88DBB2D4
:1015B00019463820FFF7ACFAFB881B0A9BB2DBB256
:1015C00019463920FFF7A4FABB88DBB219463A2046
:1015D000FFF79EFABB881B0A9BB2DBB219463B2081
:1015E000FFF796FA00BF0837BD4680BD80B582B0D0
:1015F00000AF78607B68DBB219465020FFF788FAAD
:101600007B681B0ADBB219465120FFF781FA7B6821
:101610001B0CDBB219465220FFF77AFA7B681B0ECF
:10162000DBB219465320FFF773FA00BF0837BD46F7
:1016300080BD80B582B000AF0346FB80FB88DBB283
:1016400019465420FFF764FAFB881B0A9BB2DBB2F1
:1016500019465520FFF75CFA00BF0837BD4680BD2C
:1016600080B582B000AF03460A46FB801346BB80BC
:10167000FB88DBB219465620FFF74AFAFB881B0AA3
:101680009BB2DBB219465720FFF742FABB88DBB2A8
:1016900019465820FFF73CFABB881B0A9BB2DBB205
:1016A00019465920FFF734FA00BF0837BD4680BD00
:1016B00080B582B000AF03460A46FB801346BB806C
:1016C000FB88DBB219465A20FFF722FAFB881B0A77
:1016D0009BB2DBB219465B20FFF71AFABB88DBB27C
:1016E00019465C20FFF714FABB881B0A9BB2DBB2D9
:1016F00019465D20FFF70CFA00BF0837BD4680BDD4
:1017000080B582B000AF5E20FFF78AF9FFF7C4F919
:101710000346FB71FB7923F00403FB71FB79184648
:10172000FFF79CF900BF0837BD4680BD80B582B089
:1017300000AF5E20FFF774F9FFF7AEF90346FB71C7
:10174000FB7923F00203FB71FB7923F00103FB71AA
:10175000FB791846FFF782F900BF0837BD4680BD08
:1017600080B582B000AF03460A46FB801346BB80BB
:10177000FB88DBB219466320FFF7CAF9FB881B0A16
:101780009BB2DBB219466420FFF7C2F9BB88DBB21B
:1017900019466520FFF7BCF9BB881B0A9BB2DBB278
:1017A00019466620FFF7B4F900BF0837BD4680BD73
:1017B00080B500AF6720FFF733F9A220FFF74EF99D
:1017C000FFF7A1FA00BF80BD80B582B000AF03462D
:1017D0000A46FB801346BB806820FFF721F9FB888F
:1017E000DBB21846FFF73AF96920FFF719F9FB88D1
:1017F0001B0A9BB2DBB21846FFF730F96A20FFF7ED
:101800000FF9BB88DBB21846FFF728F96B20FFF70A
:1018100007F9BB881B0A9BB2DBB21846FFF71EF91B
:1018200000BF0837BD4680BD80B582B000AF03461B
:101830000A46FB801346BB806C20FFF7F1F8FB885B
:10184000DBB21846FFF70AF96D20FFF7E9F8FB88CD
:101850001B0A9BB2DBB21846FFF700F96E20FFF7B8
:10186000DFF8BB88DBB21846FFF7F8F86F20FFF708
:10187000D7F8BB881B0A9BB2DBB21846FFF7EEF81D
:1018800000BF0837BD4680BD80B582B000AF0346BB
:101890000A46FB801346BB806820FFF7C1F8FB882F
:1018A000DBB21846FFF7DAF86920FFF7B9F8FB88D2
:1018B0001B0A9BB2DBB21846FFF7D0F86A20FFF78D
:1018C000AFF8BB88DBB21846FFF7C8F86B20FFF70C
:1018D000A7F8BB881B0A9BB2DBB21846FFF7BEF81D
:1018E00000BF0837BD4680BD80B582B000AF03465B
:1018F0000A46FB801346BB806C20FFF791F8FB88FB
:10190000DBB21846FFF7AAF86D20FFF789F8FB88CD
:101910001B0A9BB2DBB21846FFF7A0F86E20FFF758
:101920007FF8BB88DBB21846FFF798F86F20FFF707
:1019300077F8BB881B0A9BB2DBB21846FFF78EF81C
:1019400000BF0837BD4680BD80B582B000AF0346FA
:101950000A46FB801346BB807020FFF761F8FB88C6
:10196000DBB21846FFF77AF87120FFF759F8FB88C9
:101970001B0A9BB2DBB21846FFF770F87220FFF724
:101980004FF8BB88DBB21846FFF768F87320FFF703
:1019900047F8BB881B0A9BB2DBB21846FFF75EF81C
:1019A00000BF0837BD4680BD80B500AF7620FFF789
:1019B00037F8E020FFF752F8FFF7A5F900BF80BD28
:1019C00080B582B000AF9020FFF72AF8FFF764F8E7
:1019D0000346FB71FB7943F01003FB71FB7918465A
:1019E000FFF73CF800BF0837BD4680BD80B582B028
:1019F00000AFFFF76FF80346FB71FB7903F00803B4
:101A0000002BF6D100BF00BF0837BD4680BD80B5B2
:101A100084B000AF0346FB719120FFF701F8FFF798
:101A20003BF80346FB73FB7B03F00F03FB73FB796F
:101A30001B015AB297F90F3013435BB2FB73FB7B68
:101A40001846FFF70BF800BF1037BD4680BD80B5C4
:101A500084B000AF0346FB719120FEF7E1FFFFF772
:101A60001BF80346FB73FB7B23F00F03FB73FA7B2E
:101A7000FB791343FB73FB7B1846FEF7EFFF00BFB8
:101A80001037BD4680BD80B582B000AF9220FEF712
:101A9000C7FFFFF701F80346FB71FB7923F0400312
:101AA000FB71FB7923F02003FB71FB791846FEF7ED
:101AB000D5FF00BF0837BD4680BD80B582B000AFFE
:101AC0009220FEF7ADFFFEF7E7FF0346FB71FB79BF
:101AD00023F01003FB71FB7923F00803FB71FB7902
:101AE00023F00403FB71FB791846FEF7B7FF00BF34
:101AF0000837BD4680BD80B582B000AF9220FEF7AA
:101B00008FFFFEF7C9FF0346FB71FB7923F0020349
:101B1000FB71FB7923F00103FB71FB791846FEF79B
:101B20009DFF00BF0837BD4680BD80B582B000AFC5
:101B300078607B68DBB219469320FEF7E9FF7B688B
:101B40001B0ADBB219469420FEF7E2FF7B681B0CF0
:101B5000DBB219469520FEF7DBFF7B681B0EDBB27C
:101B600019469620FEF7D4FF00BF0837BD4680BD5A
:101B700080B582B000AF0346FB80FB88DBB219461C
:101B80009720FEF7C5FFFB881B0A9BB2DBB2194604
:101B90009820FEF7BDFF00BF0837BD4680BD80B569
:101BA00082B000AF03460A46FB801346BB80FB8829
:101BB000DBB219469920FEF7ABFFFB881B0A9BB2EC
:101BC000DBB219469A20FEF7A3FFBB88DBB21946A9
:101BD0009B20FEF79DFFBB881B0A9BB2DBB2194618
:101BE0009C20FEF795FF00BF0837BD4680BD80B53D
:101BF00082B000AF78607B68DBB219469D20FEF7AB
:101C000087FF7B681B0ADBB219469E20FEF780FF28
:101C10007B681B0CDBB219469F20FEF779FF7B68BF
:101C20001B0EDBB21946A020FEF772FF00BF08377B
:101C3000BD4680BD80B582B000AF0346FB80FB8807
:101C4000DBB21946A120FEF763FFFB881B0A9BB29B
:101C5000DBB21946A220FEF75BFF00BF0837BD4686
:101C600080BD80B582B000AF03460A46FB801346B4
:101C7000BB80FB88DBB21946A320FEF749FFFB8837
:101C80001B0A9BB2DBB21946A420FEF741FFBB88BA
:101C9000DBB21946A520FEF73BFFBB881B0A9BB2AF
:101CA000DBB21946A620FEF733FF00BF0837BD465A
:101CB00080BD80B582B000AF78607B68DBB219462A
:101CC000A720FEF725FF7B681B0ADBB21946A82078
:101CD000FEF71EFF7B681B0CDBB21946A920FEF73E
:101CE00017FF7B681B0EDBB21946AA20FEF710FF18
:101CF00000BF0837BD4680BD80B582B000AF034647
:101D0000FB80FB88DBB21946AB20FEF701FFFB88A6
:101D10001B0A9BB2DBB21946AC20FEF7F9FE00BFEE
:101D20000837BD4680BD80B582B000AF03460A4685
:101D3000FB801346BB80FB88DBB21946AD20FEF763
:101D4000E7FEFB881B0A9BB2DBB21946AE20FEF70A
:101D5000DFFEBB88DBB21946AF20FEF7D9FEBB8899
:101D60001B0A9BB2DBB21946B020FEF7D1FE00BFC2
:101D70000837BD4680BD80B582B000AF03460A4635
:101D8000FB801346BB80FB88DBB21946B120FEF70F
:101D9000BFFEFB881B0A9BB2DBB21946B220FEF7DE
:101DA000B7FEBB88DBB21946B320FEF7B1FEBB8895
:101DB0001B0A9BB2DBB21946B420FEF7A9FE00BF96
:101DC0000837BD4680BD80B582B000AFB720FEF7B2
:101DD00027FEFEF761FE0346FB71FB7903F07F03EC
:101DE000FB71FB791846FEF739FE00BF0837BD4688
:101DF00080BD80B582B000AFB720FEF711FEFEF7C0
:101E00004BFE0346FB71FB7923F04003FB71FB792A
:101E10001846FEF723FE00BF0837BD4680BD80B5DB
:101E200082B000AFB720FEF7FBFDFEF735FE03469C
:101E3000FB71FB7923F02003FB71FB791846FEF759
:101E40000DFE00BF0837BD4680BD80B582B000AF33
:101E5000B720FEF7E5FDFEF71FFE0346FB71FB7999
:101E600023F01003FB71FB791846FEF7F7FD00BF66
:101E70000837BD4680BD80B582B000AFB720FEF701
:101E8000CFFDFEF709FE0346FB71FB7923F00C033F
:101E9000FB71FB791846FEF7E1FD00BF0837BD4630
:101EA00080BD80B582B000AFB720FEF7B9FDFEF768
:101EB000F3FD0346FB71FB7923F00303FB71FB7910
:101EC0001846FEF7CBFD00BF0837BD4680BD80B584
:101ED00082B000AF0346FB71BB20FEF7A1FDFB798A
:101EE0001846FEF7BBFD00BF0837BD4680BD80B574
:101EF00082B000AFCC20FEF793FDFEF7CDFD034688
:101F0000FB71FB7903F07F03FB71FB7943F0400326
:101F1000FB71FB791846FEF7A1FD00BF0837BD46EF
:101F200080BD80B582B000AFCC20FEF779FDFEF712
:101F3000B3FD0346FB71FB7923F02003FB71FB79B2
:101F400043F01003FB71FB791846FEF787FD00BFD5
:101F50000837BD4680BD80B582B000AFCC20FEF70B
:101F60005FFDFEF799FD0346FB71FB7943F020030B
:101F7000FB71FB7923F01003FB71FB791846FEF728
:101F80006DFD00BF0837BD4680BD80B582B000AF93
:101F9000CD20FEF745FDFEF77FFD0346FB71FB7983
:101FA00063F07F03FB71FB791846FEF757FD00BF16
:101FB0000837BD4680BD80B582B000AFCD20FEF7AA
:101FC0002FFDFEF769FD0346FB71FB7903F07F03EC
:101FD000FB71FB791846FEF741FD00BF0837BD468F
:101FE00080BD80B582B000AFCD20FEF719FDFEF7B1
:101FF00053FD0346FB71FB7943F04003FB71FB7912
:102000001846FEF72BFD00BF0837BD4680BD80B5E2
:1020100082B000AFCD20FEF703FDFEF73DFD034685
:10202000FB71FB7923F04003FB71FB791846FEF747
:1020300015FD00BF0837BD4680BD80B582B000AF3A
:10204000CD20FEF7EDFCFEF727FD0346FB71FB7983
:1020500043F01003FB71FB791846FEF7FFFC00BF4D
:102060000837BD4680BD80B582B000AFCD20FEF7F9
:10207000D7FCFEF711FD0346FB71FB7923F0080343
:10208000FB71FB7923F00403FB71FB791846FEF723
:10209000E5FC00BF0837BD4680BD80B582B000AF0B
:1020A000CD20FEF7BDFCFEF7F7FC0346FB71FB7984
:1020B00023F00803FB71FB7943F00403FB71FB7908
:1020C0001846FEF7CBFC00BF0837BD4680BD80B583
:1020D00082B000AFCD20FEF7A3FCFEF7DDFC034687
:1020E000FB71FB7943F00803FB71FB7923F00403D8
:1020F000FB71FB791846FEF7B1FC00BF0837BD46FF
:1021000080BD80B582B000AFCD20FEF789FCFEF720
:10211000C3FC0346FB71FB7943F00803FB71FB79B9
:1021200043F00403FB71FB791846FEF797FC00BFF0
:102130000837BD4680BD80B582B000AFCD20FEF728
:102140006FFCFEF7A9FC0346FB71FB7923F0020349
:10215000FB71FB7923F00103FB71FB791846FEF755
:102160007DFC00BF0837BD4680BD80B582B000AFA2
:10217000CD20FEF755FCFEF78FFC0346FB71FB7983
:1021800023F00203FB71FB7943F00103FB71FB7940
:102190001846FEF763FC00BF0837BD4680BD80B51A
:1021A00082B000AFCD20FEF73BFCFEF775FC034686
:1021B000FB71FB7943F00203FB71FB7923F0010310
:1021C000FB71FB791846FEF749FC00BF0837BD4696
:1021D00080BD80B582B000AFCD20FEF721FCFEF7B8
:1021E0005BFC0346FB71FB7943F00203FB71FB7957
:1021F00043F00103FB71FB791846FEF72FFC00BF8B
:102200000837BD4680BD80B582B000AFCE20FEF756
:1022100007FCFEF741FC0346FB71FB7963F07F038B
:10222000FB71FB7923F04003FB71FB7923F0200362
:10223000FB71FB791846FEF711FC00BF0837BD465D
:1022400080BD80B582B000AF0346FB71CF20FEF7A2
:10225000E7FBFB791846FEF701FC00BF0837BD46D7
:1022600080BD80B582B000AF0346FB71D220FEF77F
:10227000D7FBFB791846FEF7F1FBD320FEF7D0FB26
:10228000FB79DB00DBB21846FEF7E8FBD420FEF753
:10229000C7FBFB799B01DBB21846FEF7DFFB00BFF3
:1022A0000837BD4680BD80B582B000AF0346FB71E4
:1022B000D520FEF7B5FBFB791846FEF7CFFBD620FD
:1022C000FEF7AEFBFB79DB00DBB21846FEF7C6FB80
:1022D000D720FEF7A5FBFB799B01DBB21846FEF782
:1022E000BDFB00BF0837BD4680BD80B582B000AFE2
:1022F0007860FEF7C9FD0420FEF792FB09E07B68D9
:102300001B781846FEF7AAFBFEF7D5FC7B68013365
:102310007B607B681B78002BF1D1FEF7D7FCFEF7C2
:102320009DFD00BF0837BD4680BD80B584B000AFBD
:10233000786039600420FEF773FB0023FB600BE03C
:102340003A68FB6813441B781846FEF787FBFEF7D4
:10235000B2FCFB680133FB60FA687B689A42EFD3FA
:1023600000BF00BF1037BD4680BD000080B584B0FF
:1023700000AF786039600420FEF752FB0023FB6059
:1023800024E03A68FB6813441B78FB72FB7A5B0914
:10239000DBB21A46FB7A9B08DBB203F003031A4454
:1023A000FB7A5B0003F0060313440D4A82FB031221
:1023B000DB17D31ADBB29B00FB72FB7A1846FEF7E1
:1023C0004DFBFEF778FCFB680133FB60FA687B6825
:1023D0009A42D6D300BF00BF1037BD4680BD00BFB4
:1023E0005655555580B586B000AFF860B9607A6033
:1023F0000420FEF715FB00233B611DE000237B61F9
:1024000013E0BA683B69D31A013BFA6803FB02F296
:102410007B6913447A6813441B781846FEF71EFB49
:10242000FEF749FC7B6901337B617A69FB689A425C
:10243000E7D33B6901333B613A69BB689A42DDD31C
:1024400000BF00BF1837BD4680BD80B586B000AF65
:10245000F860B9607A600420FEF7E2FA00233B617D
:1024600021E000237B6117E0BB685A083B695B08E9
:10247000D31A013BFA6802FB03F35A087B695B0835
:1024800013447A6813441B781846FEF7E7FAFEF700
:1024900012FC7B6901337B617A69FB689A42E3D362
:1024A0003B6901333B613A69BB689A42D9D300BFAB
:1024B00000BF1837BD4680BD80B588B000AFF8605A
:1024C000B9607A600420FEF7ABFA0023BB613AE002
:1024D0000023FB6130E0BB685A08BB695B08D31A74
:1024E000013BFA6802FB03F35A08FB695B081344DB
:1024F0007A6813441B78FB75FB7D5B09DBB21A46D7
:10250000FB7D9B08DBB203F003031A44FB7D5B00F9
:1025100003F006031344104A82FB0312DB17D31A9D
:10252000DBB29B00FB75FB7D1846FEF797FAFEF7C2
:10253000C2FBFB690133FB61FA69FB689A42CAD3AB
:10254000BB690133BB61BA69BB689A42C0D300BFA3
:1025500000BF2037BD4680BD5655555580B588B063
:1025600000AFF860B9607A600420FEF759FA0023E2
:10257000BB6136E00023FB612CE0BA68BB69D31A6B
:10258000013BFA6803FB02F2FB6913447A681344C7
:102590001B78FB75FB7D5B09DBB21A46FB7D9B0854
:1025A000DBB203F003031A44FB7D5B0003F0060378
:1025B0001344104A82FB0312DB17D31ADBB29B00D1
:1025C000FB75FB7D1846FEF749FAFEF774FBFB69C5
:1025D0000133FB61FA69FB689A42CED3BB690133D0
:1025E000BB61BA69BB689A42C4D300BF00BF203741
:1025F000BD4680BD5655555580B500AF4FF40041DE
:102600003B4808F055F90346002B02D1394B002214
:102610001A7001222021384808F062F90222374955
:10262000374809F00EFD0346002B01D007F0C2FA2F
:10263000FDF7B6FFFEF792F8FEF77EFA00BFFEF751
:1026400049FA034603F00203002BF8D1FEF796FA8D
:10265000FEF7C0FC142007F0CFFD2A48FEF7B2FEBB
:102660004FF4C870FEF7D1FE00210020FEF7E4FE13
:102670002448FEF7BBFF4FF4C870FEF7DAFF0021D5
:102680000020FEF7EDFF4FF4A0614FF4C870FFF794
:102690000FF80020FFF7E5FD0020FFF704FE002102
:1026A0000020FFF791F840F2FF4140F28F10FFF752
:1026B000BBF8FFF779F9FFF71AFCFFF7A4FDFFF766
:1026C0004AFCFFF780FBFFF794FBFFF7A8FBFFF73F
:1026D000BCFBFFF7D0FBFFF7E4FB0420FFF7F7FBA1
:1026E000FEF75CFB06F02CFD06F086FE00BF80BD09
:1026F000000802400000002000000240A00000206E
:10270000C408002000204E0080B582B000AF002336
:10271000BB719C4B00221A609B4B1B78022B7CD018
:10272000022B00F38983002B02D0012B59D083E3C5
:10273000964B5B88DAB2964B1A70954B1B78002B40
:102740003CD1944B0E221A80934B1B78002B0DD05A
:10275000904B00225A8002228E49904809F03BFC9F
:102760000346002B1ED007F025FA1BE08A4B0122FE
:102770001A70884B25225A80864B06229A80854BF8
:102780000022DA80834B14221A81824BC0225A81A4
:1027900006228049814809F01EFC0346002B01D027
:1027A00007F008FA022279497C4809F04AFC0346FE
:1027B000002B00F04F8307F0FDF94BE3724B012231
:1027C0001A70724B1B68764A136001226F49734876
:1027D00009F037FC0346002B00F03C8307F0EAF9D0
:1027E00038E3694B02221A70684B1B88DBB2033B4B
:1027F000DAB26C4B1A70654B1A88694B9A80694B38
:102800001B781A466149654809F01BFC0346002BFA
:1028100000F0228307F0CEF91EE35B4B00221A7012
:102820006148604B1B785B001A4658490AF0EDFD81
:102830005C4B1B7801331946594800F053FC0346A2
:102840001846584B1B780233554A32F813301B0296
:10285000544A12780132524931F8122013449842F6
:1028600040F0CB824E4B5B88012B03D14C4B9B88B5
:10287000052B18D0474B0E221A80464B01225A8056
:10288000444B05229A80434B6E22DA80414B5E22F4
:102890001A8105223F49414809F09DFB0346002B60
:1028A00001D007F087F9022238493C4809F0C9FBFA
:1028B0000346002B01D007F07DF9394B5B88012BD3
:1028C00003D13A4B01221A70C8E2354B5B88312B99
:1028D00003D1364B02221A70C0E2314B5B8803F001
:1028E0003F03302B40F03E822D4B19892C4BDB8867
:1028F0001A46C9B22E4B9954294B1B89062B03D07B
:10290000274B1B89122B02D1284B04221A70244B0F
:102910009B88082B0FD1224BDB88002B0BD1204B3F
:102920001B89002B07D11E4B5B89002B03D11F4B4A
:1029300003221A7095E21A4B1B89002B1BD1062328
:10294000FB710DE0FB79164A32F81320BB79D1B246
:10295000184AD154BB790133BB71FB790133FB7148
:10296000BA790F4B9B88083B9A42EBDBBB79114A43
:102970000021D15472E20A4B1B89012B35D1062369
:10298000FB7127E01C08002003080020A0000020A5
:1029900004080020A004002006080020C40800202D
:1029A000A002002005080020A60200200208002046
:1029B0000C080020A0070020FB797F4A32F8132082
:1029C000BB79D1B27D4AD154BB790133BB71FB795C
:1029D0000133FB71BA79784B9B88083B9A42EBDB59
:1029E000BB79764A0021D15438E2734B1B89112BF5
:1029F00003D0714B1B89122B63D1714B00221A70CB
:102A00006F4B00225A706E4B00229A706C4B002262
:102A1000DA706B4B00221A71694B00225A71664BB7
:102A20009B89302B0DD1644BDB89302B09D1624B54
:102A30001B8A302B05D1604B5B8ADAB2604B1A706F
:102A40003EE05D4B9B89302B0ED15B4BDB89302BFD
:102A50000AD1594B1B8ADAB2594B1A70564B5B8A12
:102A6000DAB2574B5A702BE0534B9B89302B0FD166
:102A7000514BDB89DAB2524B1A704F4B1B8ADAB2D8
:102A80004F4B5A704C4B5B8ADAB24D4B9A70BFE198
:102A9000494B9B89DAB24A4B1A70494B2C225A7027
:102AA000454BDB89DAB2464B9A70434B1B8ADAB24C
:102AB000434BDA70404B5B8ADAB2414B1A71A7E1A3
:102AC000A6E13D4B1B89132B7ED13D4B00221A7092
:102AD0003B4B00225A703A4B00229A70384B00222E
:102AE000DA70374B00221A71354B00225A71324B83
:102AF0009B89302B10D1304BDB89302B0CD12E4BE6
:102B00001B8A302B08D12C4B5B8ADAB22C4B1A7003
:102B10002B4B00225A7046E0274B9B89302B11D15A
:102B2000254BDB89302B0DD1234B1B8ADAB2244B8A
:102B30001A70214B5B8ADAB2214B5A70204B00226B
:102B40009A7030E01C4B9B89302B12D11A4BDB89D9
:102B5000DAB21B4B1A70184B1B8ADAB2184B5A7038
:102B6000154B5B8ADAB2164B9A70154B0022DA705D
:102B700019E0114B9B89DAB2114B1A70104B2C22C1
:102B80005A700D4BDB89DAB20D4B9A700A4B1B8AD7
:102B9000DAB20B4BDA70084B5B8ADAB2084B1A7167
:102BA000074B00225A71044B9B8ADAB2054B1A700C
:102BB000044B00225A7051E1A0020020C8070020F7
:102BC000F007002000080020924B1B89172B04D02F
:102BD000904B1B89182B40F041818F4B00221A70BB
:102BE0008D4B00225A708C4B00229A708A4B002227
:102BF000DA70894B00221A71874B00225A71874B79
:102C000000221A70854B00225A70844B00229A7061
:102C1000824B0022DA70814B00221A717F4B002216
:102C20005A717C4B9B89302B0DD17A4BDB89302B31
:102C300009D1784B1B8A302B05D1764B5B8ADAB2EF
:102C4000754B1A703DE0734B9B89302B0ED1714B45
:102C5000DB89302B0AD16F4B1B8ADAB26E4B1A70AC
:102C60006C4B5B8ADAB26C4B5A702AE0694B9B89D9
:102C7000302B0FD1674BDB89DAB2674B1A70654B8B
:102C80001B8ADAB2644B5A70624B5B8ADAB2624BCF
:102C90009A7016E05F4B9B89DAB25F4B1A705E4BFD
:102CA0002C225A705B4BDB89DAB25B4B9A70594B22
:102CB0001B8ADAB2584BDA70564B5B8ADAB2564B43
:102CC0001A71544B9B8A302B0DD1524BDB8A302B1F
:102CD00009D1504B1B8B302B05D14E4B5B8BDAB29D
:102CE0004E4B1A7094E04B4B9B8A302B0ED1494BC4
:102CF000DB8A302B0AD1474B1B8BDAB2474B1A7059
:102D0000444B5B8BDAB2454B5A7081E0414B9B8A56
:102D1000302B0FD13F4BDB8ADAB2404B1A703D4B60
:102D20001B8BDAB23D4B5A703A4B5B8BDAB23B4BA2
:102D30009A7093E0374B9B8ADAB2384B1A70374B54
:102D40002C225A70334BDB8ADAB2344B9A70314BF7
:102D50001B8BDAB2314BDA702E4B5B8BDAB22F4B16
:102D60001A717BE02B4B5B8803F03F03312B75D14D
:102D7000284B9B88062B0AD1264BDB88012B06D1DA
:102D8000274B02221A70274B00221A7040E0214B79
:102D90009B88082B0BD11F4B1B89DAB2224B1A7070
:102DA0001F4B04221A701F4B00221A7056E0194B59
:102DB0009B880A2B52D1174B5B891A46C82303FB09
:102DC00002F1144B1B891A46184B43F82210114B81
:102DD000DB891A46C82303FB02F10E4B9B891A4676
:102DE000124B43F82210104B00221A700C4B052294
:102DF0001A700C4B01221A7030E002220C490D4867
:102E000009F01FF90346002B28D006F0D3FE25E079
:102E100024E000BFA0020020F0070020F8070020F7
:102E200002080020070800200808002014080020DD
:102E3000A0000020C40800200C4B00221A700222BF
:102E40000B490C4809F0FDF80346002B08D006F0AA
:102E5000B1FE05E000BF04E000BF02E000BF00E0FB
:102E600000BF00BF0837BD4680BD00BF030800207B
:102E7000A0000020C408002080B500AF944B1B7850
:102E8000012B13D1FEF7D2F8FF20FFF7EAF900205B
:102E9000FFF709FA00215020FEF762FCFFF7E3F884
:102EA000FFF749F98A4B00221A70C4E0884B1B785F
:102EB000022B14D1FEF7BAF80020FFF7D2F9002157
:102EC0000020FEF781FC40F2FF4140F28F10FEF738
:102ED000ABFCFEF769FD7E4B00221A70ABE07C4B29
:102EE0001B78032B02D1FEF7A1F8A4E0784B1B78E6
:102EF000042B04D0764B1B78052B40F09C80754B3F
:102F00001B781A46744B9B5C1F2B00F2948001A225
:102F100052F823F0952F00089B2F0008A12F0008DE
:102F2000A72F0008AD2F0008B32F0008B92F000805
:102F3000BF2F0008C52F0008CB2F0008D12F000895
:102F4000D72F0008DD2F0008E32F0008E92F000825
:102F5000EF2F0008F52F0008FB2F000801300008B4
:102F600007300008373000083730000837300008D5
:102F70000D300008133000083730000837300008E3
:102F8000193000081F300008253000082B300008D9
:102F90003130000800F0E6F84DE000F029F94AE091
:102FA00000F0D8FA47E000F065FC44E000F0D4FC03
:102FB00041E000F06DFD3EE000F04AFE3BE000F035
:102FC00059FE38E001F0F0F935E001F0C7FA32E0DF
:102FD00001F0BEFC2FE001F0AFFE2CE002F0A0F803
:102FE00029E002F091FA26E002F004FC23E002F06E
:102FF0007BFD20E002F0FCFF1DE003F063FA1AE025
:1030000003F006FE17E004F003F814E004F0A8FA59
:1030100011E004F05FFD0EE005F00EF80BE005F0A6
:103020008BF808E005F074F905E005F0E7FD02E033
:1030300005F0AAFF00BF294B1B6842F210729342B1
:1030400043D1264B42F211721A60E020FFF709F9D2
:1030500000210020FEF7B8FB40F2FF4140F28F1044
:10306000FEF7E2FBFEF7A0FC1D4B4E221A701C4B34
:103070004F225A701A4B20229A70194B4422DA7050
:10308000174B41221A71164B54225A71144B41228C
:103090009A71134B0022DA71FFF733F8FFF799F8B2
:1030A000FEF759FF0020FFF7DCF8E020FFF7FBF800
:1030B000FEF797FF2120FFF7C4F84FF4B4716420A6
:1030C000FEF74EFB0648FFF710F900BF80BD00BFBA
:1030D00002080020080800200C0800201C0800201E
:1030E000A006002080B487B000AF7860396000236C
:1030F000FB8248F20843BB8100233B6127E03B6928
:103100005B007A6813441B881BB2DBB21AB2B7F9B2
:10311000163053401BB2FB820023FB7311E0FB8A85
:1031200003F00103002B06D0FB8A5B089AB2BB892F
:103130005340FB8202E0FB8A5B08FB82FB7B01338E
:10314000FB73FB7B072BEAD93B6901333B613A698F
:103150003B689A42D3D3FB8A18461C37BD465DF8BC
:10316000047B704780B500AF0020FFF77AF800209D
:10317000FFF799F800210020FEF726FB40F2FF41FF
:1031800040F28F10FEF750FBFEF70EFC154B1B783C
:10319000002B03D0FF20FFF764F802E01F20FFF7A9
:1031A00060F8FEF7A4FEFFF72EF8FEF730FFFEF7FB
:1031B00002FFFEF7D0FE2120FFF743F8FEF787FF5E
:1031C000FFF707F8E1217420FEF7CAFA0648FFF777
:1031D0008CF8054B00221A70044B00221A7000BFB5
:1031E00080BD00BF00000020A007002002080020D2
:1031F00080B5AEB000AF00233B6507F154034C220D
:10320000002118460AF085F800233B603B1D4C2244
:10321000002118460AF07DF80023C7F8B4300023D7
:10322000C7F8B0300023C7F8AC300E23C7F8A83079
:103230000020FFF716F80020FFF735F800210020E6
:10324000FEF7C2FA40F2FF4140F28F10FEF7ECFAAF
:10325000FEF7AAFBFEF74BFEFEF7D5FFFEF77BFE5F
:103260002120FEF7EEFFB74B1B78002B03D0FF2089
:10327000FEF7F7FF02E01F20FEF7F3FF0020FFF745
:1032800012F8FEF798FEFEF7ACFEE1217420FEF77F
:1032900067FAFEF71CFFFEF79CFFAB48FFF725F827
:1032A000A94B00221A70A74B1B78002B03D01C20BF
:1032B000FEF7D7FF02E01F20FEF7D3FF0020FEF746
:1032C000F2FF5A213A20FEF77FFA4FF49B615C200F
:1032D000FEF7AAFAFEF768FB9A4B1B78002B03D087
:1032E0001C20FEF7BEFF02E01F20FEF7BAFF002001
:1032F000FEF7D9FF5A214FF48F70FEF765FA4FF4AD
:103300009B614FF49F70FEF78FFAFEF74DFBFEF7BF
:103310003CFEFEF77CFEFEF7A6FEFEF70CFF8B4B95
:1033200054221A70894B4F225A70884B50229A703F
:10333000864B2022DA70854B44221A71834B4F2230
:103340005A71824B4C229A71804B4C22DA717F4B1E
:1033500041221A727D4B52225A727C4B20229A7261
:103360007A4B2022DA72794B20221A73774B202273
:103370005A73764B20229A73744B0022DA7300231F
:10338000C7F8B4300023C7F8B030714B00221A7070
:10339000CDE0D7F8AC300133C7F8AC30D7F8AC305B
:1033A0000F2B02D10023C7F8AC30D7F8AC30C7F8E8
:1033B000B4300023C7F8A4301CE0644AD7F8B43016
:1033C0001344197807F15002D7F8A43013440A4681
:1033D0001A70D7F8B4300133C7F8B430D7F8B43026
:1033E0000F2B02D10023C7F8B430D7F8A430013333
:1033F000C7F8A430D7F8A430252BDEDDD7F8A830E5
:10340000013BC7F8A830D7F8A830B3F1FF3F02D18D
:103410000E23C7F8A830D7F8A830C7F8B030262355
:10342000C7F8A0301CE0494AD7F8B03013441978E7
:103430003A46D7F8A03013440A461A70D7F8B0308D
:10344000013BC7F8B030D7F8B030B3F1FF3F02D13D
:103450000E23C7F8B030D7F8A030013BC7F8A03032
:10346000D7F8A030B3F1FF3FDDD1364B1B78002BEE
:1034700003D01C20FEF7F5FE02E01F20FEF7F1FE50
:103480000020FEF710FF5A213A20FEF79DF94FF475
:103490009B615C20FEF7C8F9FEF786FA0020FEF774
:1034A000E0FE284B1B78002B03D01C20FEF7FBFE10
:1034B00002E01F20FEF7F7FE5A213A20FEF750F9EE
:1034C00007F150031846FEF710FF1E4B1B78002B28
:1034D00003D01C20FEF7C5FE02E01F20FEF7C1FE50
:1034E0000020FEF7E0FE5A214FF49070FEF76CF9D1
:1034F0004FF49B614FF49F70FEF796F9FEF754FA74
:103500005A214FF48F70FEF72BF90020FEF7A9FE29
:103510000C4B1B78002B03D01C20FEF7C4FE02E0EE
:103520001F20FEF7C0FE3B461846FEF7DEFE084BA6
:103530001B78002B3FF42DAF00BF00BFB837BD464E
:1035400080BD00BF00000020C8070020A0060020AA
:103550000208002080B586B000AF46233B614FF4DF
:10356000FA73FB600223BB6011237B60BA4B4722D6
:103570001A70B94B4F225A70B74B4F229A70B64B04
:103580004422DA70B44B20221A71B34B4C225A7188
:10359000B14B55229A71B04B4322DA71AE4B4B229C
:1035A0001A72AD4B00225A720020FEF75AFE00201C
:1035B000FEF779FE00210020FEF706F940F2FF41F8
:1035C00040F28F10FEF730F9FEF7EEF9FEF78FFCB0
:1035D000FEF719FEFEF7BFFCFEF719FDFEF7EBFC48
:1035E0009E4B00221A7026E19D4B1B78002B03D0C6
:1035F000FF20FEF736FE02E01F20FEF732FE7B685A
:103600009BB2C3F191039BB24FF416711846FEF7BB
:10361000A7F8FEF728FDFEF7A8FD9248FEF765FE25
:103620008E4B1B78002B40F00C81386906F0E4FDCE
:103630002120FEF706FE7B689BB2C3F1B5039BB267
:1036400040F22B211846FEF78BF8FEF70CFDFEF733
:1036500072FD8148FEF749FE804B1B78002B40F03D
:10366000F280386906F0C8FD0020FEF71CFE7B687A
:103670009BB2C3F18E039BB24FF4E4711846FEF780
:103680006FF8FEF70AFDFEF78AFD7348FEF72DFE80
:10369000724B1B78002B40F0D880386906F0ACFDE7
:1036A0000020FEF700FE7B689BB2C3F18E039BB245
:1036B0004FF4AF711846FEF753F8FEF708FDFEF71A
:1036C0006EFD6548FEF711FE644B1B78002B40F041
:1036D000BE80386906F090FD0020FEF7E4FD7B68AF
:1036E0009BB2C3F17E039BB24FF482711846FEF782
:1036F00037F8FEF706FDFEF76CFD5748FEF7F5FDBF
:10370000564B1B78002B40F0A480F86806F074FD3F
:1037100000237B616CE0514B1B78002B6DD17B68E3
:103720009BB2C3F17E039BB24FF482711846FEF741
:1037300017F84B4B1B78002B03D0E020FEF791FDD0
:1037400002E01F20FEF78DFD0020FEF7ACFD424891
:10375000FEF7CBFDF86806F04FFD404B1B78002BC1
:103760004DD17B689BB2C3F17E039BB24FF4827153
:103770001846FDF7F5FF3A4B1B78002B03D0FF20CE
:10378000FEF76FFD02E01F20FEF76BFD0020FEF745
:103790008AFD3148FEF7A9FDF86806F02DFD2F4B94
:1037A0001B78002B2DD17B689BB2C3F17E039BB2AB
:1037B0004FF482711846FDF7D3FF294B1B78002B7D
:1037C00003D00320FEF74DFD02E01F20FEF749FD68
:1037D0000020FEF768FD2048FEF787FDF86806F038
:1037E0000BFD1E4B1B78002B0DD17B6901337B61D8
:1037F0007B69BA689A428ED806E000BF04E000BF39
:1038000002E000BF00E000BF144B1B78002B2BD15F
:103810007B689BB2C3F17E039BB24FF48271184662
:10382000FDF79EFF0020FEF71CFD0020FEF73BFD8C
:103830000948FEF75AFD094B1B78002B3FF4D4AE24
:1038400013E000BF11E000BF0FE000BF0DE000BFBC
:103850000BE000BF09E000BFA00600200208002026
:103860000000002094E0000800BF00BF1837BD46EC
:1038700080BD00BF80B584B002AF12237B60002002
:10388000FEF7EFFC0020FEF70EFD00210020FDF703
:103890009BFF40F2FF4140F28F10FDF7C5FFFEF79E
:1038A00083F84FF4847300934FF4F0730222642181
:1038B000372005F02DFDFEF71AFBFEF7A4FCFEF7FE
:1038C00030FB2120FEF7BDFCFEF7E7FBFEF767FCAF
:1038D0007B689BB2C3F51C739BB219462C20FDF785
:1038E0003FFF184B1B78002B03D0FF20FEF7B9FCDD
:1038F00002E01F20FEF7B5FC0020FEF7D4FC1248C2
:10390000FEF7F3FC7B689BB2C3F520739BB21946AC
:103910008C20FDF725FF0D48FEF7E7FC7B689BB286
:10392000C3F5277302339BB21946EA20FDF718FF4F
:103930000748FEF7DAFC074B00221A7000BF083771
:10394000BD4680BD00000020A0E00008B8E00008EF
:10395000D0E000080208002080B584B002AF6FF00C
:1039600040037B600020FEF77CFC0020FEF79BFC00
:1039700000210020FDF728FF40F2FF4140F28F10A8
:10398000FDF752FFFEF710F84FF4847300934FF4E5
:10399000F0730222B421372005F0BAFCFDF7D0FA0B
:1039A0003448FDF70FFD4FF4C870FDF72EFD0021E0
:1039B0000020FDF741FD2F48FDF718FE4FF4C870B9
:1039C000FDF737FE00210020FDF74AFE4FF4A0610D
:1039D0004FF4C870FDF76CFE274B1B78002B03D00B
:1039E000FF20FEF73EFC02E01F20FEF73AFC00201D
:1039F000FEF759FCFEF795FA2120FEF722FCFEF7B0
:103A00004CFBFEF7E6FB40F2A6212620FDF7A8FEC0
:103A10001A48FEF76AFC4FF44D718220FDF7A0FEB4
:103A20001748FEF762FC7B689BB203F2DA239BB275
:103A30001946DC20FDF794FE1248FEF756FCFEF70F
:103A400056FAFEF7E0FBFEF786FA2120FEF7F9FBB7
:103A5000FEF757FBFEF7BDFB6C217120FDF780FEE2
:103A60000948FEF742FC094B00221A7000BF0837D4
:103A7000BD4680BD00204E0000000020E4E00008AC
:103A8000F8E00008D0E0000800E10008020800208B
:103A900080B588B000AF5A23FB610023BB610023CF
:103AA0003B610023FB600023BB6000237B6002239B
:103AB0003B600023FB750023BB750020FEF7D1FBA4
:103AC0000020FEF7F0FB00210020FDF77DFE40F214
:103AD000FF4140F28F10FDF7A7FEFDF765FF5A4B3F
:103AE00000221A70FDF72CFA0020FEF7BAFB002026
:103AF000FEF7D9FB0020FDF765FCFDF7C3FAFDF7E3
:103B000009FAFDF737FA00210020FDF7BDFC4FF45C
:103B1000FA20FDF7E1FC4FF4C870FDF700FD00212D
:103B20000020FDF713FD4FF4B471C620FDF736FDFC
:103B30001E233B61B423BB601E23FB6040F27A333B
:103B40007B60414B1B78002B01D1FDF7CDF93E4B3B
:103B50001B78002B5DD1322006F04EFB59E03A4B2A
:103B60001B78002B5AD1FB699BB2BA6992B21146FD
:103B70001846FDF789FC344B1B78002B50D1FB7D98
:103B8000002B03D1FB690133FB6102E0FB69013BC0
:103B9000FB612D4B1B78002B44D1FA69BB689A421C
:103BA00002DD0123FB7505E0FA693B699A4201DAFF
:103BB0000023FB75244B1B78002B35D1BB7D002BDC
:103BC00003D1BB690133BB6102E0BB69013BBB614F
:103BD0001D4B1B78002B29D1BA697B689A4202DD04
:103BE0000123BB7505E0BA69FB689A4201DA00233C
:103BF000BB75154B1B78002B1AD1134B1B78002B70
:103C000003D13B68184606F0F7FA0F4B1B78002BE0
:103C100010D10D4B1B78002BA1D00CE000BF0AE0A7
:103C200000BF08E000BF06E000BF04E000BF02E004
:103C300000BF00E000BFFDF73BFA0448FDF7C2FB00
:103C400000BF2037BD4680BD0208002000204E0086
:103C500080B500AF064B00221A7001E0FDF7D0F9E5
:103C6000034B1B78002BF9D000BF00BF80BD00BF05
:103C700002080020B0B5AEB000AF6FF01303C7F874
:103C8000AC306FF01303C7F8A8300023C7F8B43086
:103C90000023C7F8B0300A23C7F8A4301423C7F8AC
:103CA000A030C94B07F170041D460FCD0FC40FCDD6
:103CB0000FC495E80F0084E80F00C44B07F14004DF
:103CC0001D460FCD0FC40FCD0FC495E80F0084E83B
:103CD0000F0007F1100330220021184609F019FBEC
:103CE000BB4A3B1D07CA83E80700FEF700F9FEF751
:103CF0008AFAFEF730F92120FEF7A3FAB54B00222D
:103D00001A7040E30020FEF7ACFA0020FEF7CBFA71
:103D100000210020FDF758FD40F2FF4140F28F10D6
:103D2000FDF782FDFDF740FE0023C7F8B43085E0C3
:103D300005F042FB03461A46D7F8B4309B00B8336F
:103D40003B4443F8A82CD7F8B4309B00B8333B442D
:103D500053F8783C9AB2D7F8B4309B00B8333B4460
:103D600053F8483C9BB219461046FDF7F9FC9A4BB4
:103D70001B78002B0BD0D7F8B4309B00B8333B44F2
:103D800053F8A83CDBB21846FEF76BFA0EE0D7F802
:103D9000B4309B00B8333B4453F8A83C0F2B01DDF3
:103DA0001F2300E000231846FEF75BFA3A1DD7F800
:103DB000B43013441B781B09DBB2032B16D801A2C5
:103DC00052F823F0D53D0008DB3D0008E13D000836
:103DD000E73D0008FEF747F908E0FEF75EF905E069
:103DE000FEF775F902E0FEF78CF900BF3A1DD7F82F
:103DF000B43013441B7803F00F03032B16D801A231
:103E000052F823F0153E00081B3E0008213E000832
:103E1000273E0008FEF78FF908E0FEF7A6F905E057
:103E2000FEF7BDF902E0FEF7D4F900BF6B48FEF7DC
:103E30005CFAD7F8B4300133C7F8B430D7F8B430EF
:103E40000B2B7FF775AFFEF75CF9FEF7C2F9002385
:103E5000C7F8B030EAE00020FEF703FA0020FEF7D2
:103E600022FAD7F8AC309BB203F507739BB2194620
:103E70000020FDF7A9FCD7F8AC309BB203F2663303
:103E80009BB21946B420FDF7CFFCFDF78DFD002352
:103E9000C7F8B43086E005F08FFA03461A46D7F823
:103EA000B4309B00B8333B4443F8A82CD7F8B43067
:103EB0009B00B8333B4453F8783C9AB2D7F8B430FF
:103EC0009B00B8333B4453F8483C9BB2194610461C
:103ED000FDF746FC404B1B78002B0BD0D7F8B430D5
:103EE0009B00B8333B4453F8A83CDBB21846FEF7BE
:103EF000B8F90EE0D7F8B4309B00B8333B4453F820
:103F0000A83C0F2B01DD1F2300E000231846FEF71D
:103F1000A8F93A1DD7F8B43013441B781B09DBB25B
:103F2000032B17D801A252F823F000BF3D3F000831
:103F3000433F0008493F00084F3F0008FEF793F851
:103F400008E0FEF7AAF805E0FEF7C1F802E0FEF788
:103F5000D8F800BF3A1DD7F8B43013441B7803F0EB
:103F60000F03032B16D801A252F823F07D3F00085F
:103F7000833F0008893F00088F3F0008FEF7DBF809
:103F800008E0FEF7F2F805E0FEF709F902E0FEF7B7
:103F900020F900BF1148FEF7A8F9D7F8B430013373
:103FA000C7F8B430D7F8B4300B2B7FF774AFFEF7F7
:103FB000A8F8FEF70EF9084B1B78002B10D0FF2055
:103FC000FEF74FF90FE000BF1CE100084CE10008CC
:103FD0007CE10008020800200000002004E1000845
:103FE0001F20FEF73EF9D7F8B0309AB2D7F8A830C4
:103FF0009BB213449AB2D7F8AC309BB203F21723AA
:104000009BB219461046FDF7ABFBCA48FEF76DF9A7
:10401000C94B1B78002B0FD1D7F8A430184606F0F7
:10402000EBF8D7F8B0300233C7F8B030D7F8B0307B
:104030003B2B7FF710AF00E000BFBF4B1B78002B7E
:1040400040F0A7810023C7F8B030DEE00020FEF783
:1040500008F90020FEF727F9D7F8AC309BB2F0330F
:104060009BB21946C820FDF7AFFBD7F8AC309BB226
:1040700003F587639BB219464FF4C870FDF7D4FB74
:10408000FDF792FC0023C7F8B43085E005F094F901
:1040900003461A46D7F8B4309B00B8333B4443F884
:1040A000A82CD7F8B4309B00B8333B4453F8783C85
:1040B0009AB2D7F8B4309B00B8333B4453F8483C2D
:1040C0009BB219461046FDF74BFB9C4B1B78002B0F
:1040D0000BD0D7F8B4309B00B8333B4453F8A83C1E
:1040E000DBB21846FEF7BDF80EE0D7F8B4309B00FF
:1040F000B8333B4453F8A83C0F2B01DD1F2300E0ED
:1041000000231846FEF7ADF83A1DD7F8B430134433
:104110001B781B09DBB2032B16D801A252F823F03F
:1041200031410008374100083D4100084341000883
:10413000FDF799FF08E0FDF7B0FF05E0FDF7C7FFC9
:1041400002E0FDF7DEFF00BF3A1DD7F8B43013449C
:104150001B7803F00F03032B16D801A252F823F0AB
:1041600071410008774100087D4100088341000843
:10417000FDF7E1FF08E0FDF7F8FF05E0FEF70FF8B7
:1041800002E0FEF726F800BF6D48FEF7AEF8D7F85C
:10419000B4300133C7F8B430D7F8B4300B2B7FF705
:1041A00075AF664B1B78002B03D0FF20FEF759F844
:1041B00002E01F20FEF755F8FDF7A3FFFEF709F810
:1041C000D7F8A8309AB2D7F8B0309BB2D31A9BB2C6
:1041D00003F5C3739AB2D7F8AC309BB2FA339BB2F3
:1041E00019461046FDF7BCFA5648FEF77EF8524BCA
:1041F0001B78002B0FD1D7F8A030184605F0FCFF34
:10420000D7F8B0300A33C7F8B030D7F8B030C72B82
:104210007FF71CAF00E000BF474B1B78002B40F03E
:10422000BA800023C7F8B030A6E0434B1B78002BC0
:1042300040F0A8800023C7F8B43090E005F0BCF847
:1042400003461A46D7F8B4309B00B8333B4443F8D2
:10425000A82CD7F8B4309B00B8333B4453F8783CD3
:104260009AB2D7F8B4309B00B8333B4453F8483C7B
:104270009BB219461046FDF773FA304B1B78002BA2
:104280000BD0D7F8B4309B00B8333B4453F8A83C6C
:10429000DBB21846FDF7E5FF0EE0D7F8B4309B001F
:1042A000B8333B4453F8A83C0F2B01DD1F2300E03B
:1042B00000231846FDF7D5FF3A1DD7F8B430134454
:1042C0001B781B09DBB2032B16D801A252F823F08E
:1042D000E1420008E7420008ED420008F34200080E
:1042E000FDF7C1FE08E0FDF7D8FE05E0FDF7EFFEA3
:1042F00002E0FDF706FF00BF3A1DD7F8B4301344C3
:104300001B7803F00F03032B21D801A252F823F0EE
:1043100021430008274300082D43000849430008B3
:10432000FDF709FF13E0FDF720FF10E0FDF737FF71
:104330000DE000BF08E10008020800200000002096
:1043400004E1000810E10008FDF743FF00BF144836
:10435000FDF7CBFFD7F8B4300133C7F8B430D7F846
:10436000B4300B2B7FF76AAF142005F045FFD7F868
:10437000B0300133C7F8B030D7F8B0306D2B7FF7CD
:1043800054AF00E000BF074B1B78002B3FF4BAACE2
:1043900002E000BF00E000BF00BFB837BD46B0BDBF
:1043A00004E100080208002080B582B000AF642359
:1043B0007B60FDF79CFDFDF726FFFDF7CCFD21207E
:1043C000FDF73FFF0020FDF74CFF0020FDF76BFFDE
:1043D00000210020FDF7F8F940F2FF4140F28F1074
:1043E000FDF722FAFDF7E0FA554B1B78002B03D0BE
:1043F000FF20FDF736FF02E01F20FDF732FF00200F
:10440000FDF751FFA6214620FDF7AAF9FDF75FFE53
:10441000FDF7C5FE4B48FDF768FF4FF4CB71462012
:10442000FDF79EF9FDF753FEFDF7B9FE4648FDF78F
:104430005CFF40F286214620FDF792F9FDF747FE2A
:10444000FDF7ADFE4148FDF750FF4FF4C871AA20BB
:10445000FDF786F93A4B1B78002B03D01C20FDF7A3
:1044600000FF02E01F20FDF7FCFEFDF74AFEFDF70E
:10447000B0FE3748FDF739FF4FF40371C820FDF750
:104480006FF92F4B1B78002B03D0FF20FDF7E9FEBF
:1044900002E01F20FDF7E5FEFDF719FEFDF77FFEA8
:1044A0002C48FDF722FF2C4B00221A703BE0002025
:1044B000FDF7D7FE0020FDF7F6FE4FF4C871AA20E5
:1044C000FDF74EF9FDF71DFEFDF783FE2048FDF7D1
:1044D0000CFF214B1B78002B2AD17B68184605F076
:1044E0008BFE174B1B78002B03D01C20FDF7B9FE69
:1044F00002E01F20FDF7B5FE0020FDF7D4FE4FF4CB
:10450000C871AA20FDF72CF9FDF7FBFDFDF761FE50
:104510000F48FDF7EAFE104B1B78002B0AD17B6891
:10452000184605F069FE0C4B1B78002BBFD002E04B
:1045300000BF00E000BF00BF0837BD4680BD00BF20
:104540000000002088E100088CE1000890E10008EC
:1045500098E100089CE100080208002080B588B0BE
:1045600000AF7D23FB611923BB618C237B61EB23AF
:104570003B617023FB60ED23BB604FF422737B60D3
:1045800000233B6005F02CFE0346184608F050FD62
:104590000020FDF766FE0020FDF785FE00210020CB
:1045A000FDF712F940F2FF4140F28F10FDF73CF9A0
:1045B000FDF7FAF9974B1B78002B03D0E020FDF7AD
:1045C00050FE02E01F20FDF74CFE0020FDF76BFEC1
:1045D000FDF78DFCFDF717FEFDF7BDFC2120FDF773
:1045E00030FEFDF714FD8C4B00221A707BE104F0C5
:1045F000E3FE03463B60874B1B78002B05D03B68EE
:10460000DBB21846FDF72DFE02E01F20FDF729FE64
:10461000FB689BB2BA6892B211461846FDF7A0F843
:10462000FDF76FFDFDF7D5FD7C48FDF75EFEFB68ED
:104630009BB27A6892B211461846FDF791F8FDF7E1
:1046400060FDFDF7C6FD7648FDF74FFE724B1B7807
:10465000002B40F04E81FB69184605F0CDFD6E4BF6
:104660001B78002B40F04781FB69184605F0C4FD1C
:10467000694B1B78002B40F04081FB69184605F020
:10468000BBFD654B1B78002B40F03981FB69184658
:1046900005F0B2FD0020FDF7E4FDFB689BB2BA68AF
:1046A00092B211461846FDF75BF8FDF72AFDFDF7BB
:1046B00090FD5A48FDF719FE564B1B78002B05D08C
:1046C0003B68DBB21846FDF7CCFD02E01F20FDF78A
:1046D000C8FD7B699BB2BA6892B211461846FDF7D5
:1046E0003FF8FDF70EFDFDF75AFD4C48FDF7FDFDC7
:1046F000494B1B78002B40F00481BB69184605F03C
:104700007BFD454B1B78002B40F0FD80BB691846B4
:1047100005F072FD404B1B78002B40F0F680BB6922
:10472000184605F069FD3C4B1B78002B40F0EF80EC
:10473000BB69184605F060FD0020FDF792FD7B691E
:104740009BB23A6992B211461846FDF709F8FDF797
:10475000D8FCFDF724FD3148FDF7C7FD2D4B1B7834
:10476000002B05D03B68DBB21846FDF77AFD02E06E
:104770001F20FDF776FDFB689BB2BA6892B2114626
:104780001846FCF7EDFFFDF7BCFCFDF722FD2348C2
:10479000FDF7ABFD204B1B78002B40F0BA80BB69C6
:1047A000184605F029FD1C4B1B78002B40F0B38008
:1047B000BB69184605F020FD174B1B78002B40F015
:1047C000AC80BB69184605F017FD134B1B78002B16
:1047D00040F0A580BB69184605F00EFDFB689BB252
:1047E0007A6892B211461846FCF7BAFF0020FDF72E
:1047F00038FDFDF786FCFDF7ECFC0948FDF775FD7B
:10480000044B1B78002B0DD03B68DBB21846FDF73C
:1048100028FD0AE00000002002080020A4E10008B2
:10482000ACE100081F20FDF71CFD7B699BB27A6894
:1048300092B211461846FCF793FFFDF762FCFDF7B4
:10484000AEFC4148FDF751FD404B1B78002B68D171
:10485000BB69184605F0D0FC3C4B1B78002B62D19D
:10486000BB69184605F0C8FC384B1B78002B5CD19F
:10487000BB69184605F0C0FC344B1B78002B56D1A1
:10488000BB69184605F0B8FCFB689BB27A6892B227
:1048900011461846FCF764FFFDF733FCFDF799FC61
:1048A0002948FDF722FD294B1B78002B41D1FB69DC
:1048B000184605F0A1FC254B1B78002B3BD1FB696A
:1048C000184605F099FC214B1B78002B35D1FB696C
:1048D000184605F091FC1D4B1B78002B2FD1FB696E
:1048E000184605F089FC194B1B78002B3FF47FAE6E
:1048F00026E000BF24E000BF22E000BF20E000BFB0
:104900001EE000BF1CE000BF1AE000BF18E000BFBF
:1049100016E000BF14E000BF12E000BF10E000BFCF
:104920000EE000BF0CE000BF0AE000BF08E000BFDF
:1049300006E000BF04E000BF02E000BF00E000BFEF
:1049400000BF2037BD4680BDACE100080208002052
:1049500080B588B000AF7D23FB611923BB61AC2318
:104960007B618C233B619423FB604FF43673BB6007
:1049700070237B6000237B800020FDF772FC002009
:10498000FDF791FC00210020FCF71EFF40F2FF41E3
:1049900040F28F10FCF748FFFDF706F8974B1B78A5
:1049A000002B03D0FF20FDF75CFC02E01F20FDF789
:1049B00058FC0020FDF777FCFDF799FAFDF723FC82
:1049C000FDF7C9FA2120FDF73CFCFDF720FB8C4BDD
:1049D00000221A707BE104F0EFFC03467B80874BDA
:1049E0001B78002B05D07B88DBB21846FDF739FC1D
:1049F00002E01F20FDF735FC7B689BB2FA6892B29B
:104A000011461846FCF7ACFEFDF77BFBFDF7E1FB1A
:104A10007C48FDF76AFC7B689BB2BA6892B211468B
:104A20001846FCF79DFEFDF76CFBFDF7D2FB7648C0
:104A3000FDF75BFC724B1B78002B40F04E81FB694D
:104A4000184605F0D9FB6E4B1B78002B40F04781D0
:104A5000FB69184605F0D0FB694B1B78002B40F032
:104A60004081FB69184605F0C7FB654B1B78002B9E
:104A700040F03981FB69184605F0BEFB0020FDF7C8
:104A8000F0FB7B689BB2FA6892B211461846FCF7BD
:104A900067FEFDF736FBFDF79CFB5A48FDF725FC4A
:104AA000564B1B78002B05D07B88DBB21846FDF7F0
:104AB000D8FB02E01F20FDF7D4FB3B699BB2FA68EC
:104AC00092B211461846FCF74BFEFDF71AFBFDF7B4
:104AD00066FB4C48FDF709FC494B1B78002B40F066
:104AE0000481BB69184605F087FB454B1B78002BFA
:104AF00040F0FD80BB69184605F07EFB404B1B78FB
:104B0000002B40F0F680BB69184605F075FB3C4B66
:104B10001B78002B40F0EF80BB69184605F06CFB5A
:104B20000020FDF79EFB3B699BB27A6992B2114669
:104B30001846FCF715FEFDF7E4FAFDF730FB3148A7
:104B4000FDF7D3FB2D4B1B78002B05D07B88DBB208
:104B50001846FDF786FB02E01F20FDF782FB7B680D
:104B60009BB2FA6892B211461846FCF7F9FDFDF7C0
:104B7000C8FAFDF72EFB2348FDF7B7FB204B1B7847
:104B8000002B40F0BA80BB69184605F035FB1C4B82
:104B90001B78002B40F0B380BB69184605F02CFB56
:104BA000174B1B78002B40F0AC80BB69184605F012
:104BB00023FB134B1B78002B40F0A580BB691846E4
:104BC00005F01AFB7B689BB2BA6892B21146184690
:104BD000FCF7C6FD0020FDF744FBFDF792FAFDF758
:104BE000F8FA0948FDF781FB044B1B78002B0DD028
:104BF0007B88DBB21846FDF734FB0AE0000000209A
:104C000002080020B4E10008ACE100081F20FDF715
:104C100028FB3B699BB2BA6892B211461846FCF772
:104C20009FFDFDF76EFAFDF7BAFA4148FDF75DFB0F
:104C3000404B1B78002B68D1BB69184605F0DCFAA5
:104C40003C4B1B78002B62D1BB69184605F0D4FAA7
:104C5000384B1B78002B5CD1BB69184605F0CCFAA9
:104C6000344B1B78002B56D1BB69184605F0C4FAAB
:104C70007B689BB2BA6892B211461846FCF770FD89
:104C8000FDF73FFAFDF7A5FA2948FDF72EFB294B62
:104C90001B78002B41D1FB69184605F0ADFA254B76
:104CA0001B78002B3BD1FB69184605F0A5FA214B78
:104CB0001B78002B35D1FB69184605F09DFA1D4B7A
:104CC0001B78002B2FD1FB69184605F095FA194B7C
:104CD0001B78002B3FF47FAE26E000BF24E000BF2E
:104CE00022E000BF20E000BF1EE000BF1CE000BFCC
:104CF0001AE000BF18E000BF16E000BF14E000BFDC
:104D000012E000BF10E000BF0EE000BF0CE000BFEB
:104D10000AE000BF08E000BF06E000BF04E000BFFB
:104D200002E000BF00E000BF00BF2037BD4680BDED
:104D3000ACE100080208002080B588B000AF7D23F8
:104D4000FB611923BB618C237B61E1233B617023F1
:104D5000FB60E123BB604FF424737B6000237B8006
:104D60000020FDF77EFA0020FDF79DFA00210020CB
:104D7000FCF72AFD40F2FF4140F28F10FCF754FD92
:104D8000FCF712FE974B1B78002B03D0FF20FDF79A
:104D900068FA02E01F20FDF764FA0020FDF783FAAD
:104DA000FDF7A5F8FDF72FFAFDF7D5F82120FDF75F
:104DB00048FAFDF72CF98C4B00221A707BE104F0C5
:104DC000FBFA03467B80874B1B78002B05D07B8842
:104DD000DBB21846FDF745FA02E01F20FDF741FA65
:104DE000FB689BB2BA6892B211461846FCF7B8FC51
:104DF000FDF787F9FDF7EDF97C48FDF776FAFB68DA
:104E00009BB27A6892B211461846FCF7A9FCFDF7EE
:104E100078F9FDF7DEF97648FDF767FA724B1B78F3
:104E2000002B40F04E81FB69184605F0E5F96E4B0A
:104E30001B78002B40F04781FB69184605F0DCF930
:104E4000694B1B78002B40F04081FB69184605F048
:104E5000D3F9654B1B78002B40F03981FB6918466C
:104E600005F0CAF90020FDF7FCF9FB689BB2BA68AF
:104E700092B211461846FCF773FCFDF742F9FDF7B4
:104E8000A8F95A48FDF731FA564B1B78002B05D08C
:104E90007B88DBB21846FDF7E4F902E01F20FDF73E
:104EA000E0F97B699BB2BA6892B211461846FCF7EA
:104EB00057FCFDF726F9FDF772F94C48FDF715FA96
:104EC000494B1B78002B40F00481BB69184605F064
:104ED00093F9454B1B78002B40F0FD80BB691846C9
:104EE00005F08AF9404B1B78002B40F0F680BB6937
:104EF000184605F081F93C4B1B78002B40F0EF8001
:104F0000BB69184605F078F90020FDF7AAF97B691E
:104F10009BB23A6992B211461846FCF721FCFDF7A4
:104F2000F0F8FDF73CF93148FDF7DFF92D4B1B7820
:104F3000002B05D07B88DBB21846FDF792F902E022
:104F40001F20FDF78EF9FB689BB2BA6892B211463A
:104F50001846FCF705FCFDF7D4F8FDF73AF92348AD
:104F6000FDF7C3F9204B1B78002B40F0BA80BB69DA
:104F7000184605F041F91C4B1B78002B40F0B3801C
:104F8000BB69184605F038F9174B1B78002B40F029
:104F9000AC80BB69184605F02FF9134B1B78002B2A
:104FA00040F0A580BB69184605F026F9FB689BB266
:104FB0007A6892B211461846FCF7D2FB0020FDF742
:104FC00050F9FDF79EF8FDF704F90948FDF78DF952
:104FD000044B1B78002B0DD07B88DBB21846FDF705
:104FE00040F90AE00000002002080020BCE10008AF
:104FF000ACE100081F20FDF734F97B699BB27A68A9
:1050000092B211461846FCF7ABFBFDF77AF8FDF7B4
:10501000C6F84148FDF769F9404B1B78002B68D171
:10502000BB69184605F0E8F83C4B1B78002B62D1B1
:10503000BB69184605F0E0F8384B1B78002B5CD1B3
:10504000BB69184605F0D8F8344B1B78002B56D1B5
:10505000BB69184605F0D0F8FB689BB27A6892B23B
:1050600011461846FCF77CFBFDF74BF8FDF7B1F84D
:105070002948FDF73AF9294B1B78002B41D1FB69F0
:10508000184605F0B9F8254B1B78002B3BD1FB697E
:10509000184605F0B1F8214B1B78002B35D1FB6980
:1050A000184605F0A9F81D4B1B78002B2FD1FB6982
:1050B000184605F0A1F8194B1B78002B3FF47FAE82
:1050C00026E000BF24E000BF22E000BF20E000BFD8
:1050D0001EE000BF1CE000BF1AE000BF18E000BFE8
:1050E00016E000BF14E000BF12E000BF10E000BFF8
:1050F0000EE000BF0CE000BF0AE000BF08E000BF08
:1051000006E000BF04E000BF02E000BF00E000BF17
:1051100000BF2037BD4680BDACE10008020800207A
:1051200080B588B000AF7D23FB611923BB618C2360
:105130007B61E1233B617023FB60E123BB604FF4A3
:1051400024737B6000237B800020FDF78AF8002019
:10515000FDF7A9F800210020FCF736FB40F2FF41E3
:1051600040F28F10FCF760FBFCF71EFC974B1B789E
:10517000002B03D0FF20FDF774F802E01F20FDF79D
:1051800070F80020FDF78FF8FCF7B1FEFDF73BF853
:10519000FCF7E1FE2120FDF754F8FCF738FF8C4BBB
:1051A00000221A707BE104F007F903467B80874BED
:1051B0001B78002B05D07B88DBB21846FDF751F831
:1051C00002E01F20FDF74DF8FB689BB2BA6892B26F
:1051D00011461846FCF7C4FAFCF793FFFCF7F9FFF9
:1051E0007C48FDF782F8FB689BB27A6892B2114660
:1051F0001846FCF7B5FAFCF784FFFCF7EAFF76489F
:10520000FDF773F8724B1B78002B40F04E81FB6961
:10521000184604F0F1FF6E4B1B78002B40F04781DD
:10522000FB69184604F0E8FF694B1B78002B40F03F
:105230004081FB69184604F0DFFF654B1B78002BAB
:1052400040F03981FB69184604F0D6FF0020FDF7D5
:1052500008F8FB689BB2BA6892B211461846FCF790
:105260007FFAFCF74EFFFCF7B4FF5A48FDF73DF814
:10527000564B1B78002B05D07B88DBB21846FCF719
:10528000F0FF02E01F20FCF7ECFF7B699BB2BA68DD
:1052900092B211461846FCF763FAFCF732FFFCF7AE
:1052A0007EFF4C48FDF721F8494B1B78002B40F05E
:1052B0000481BB69184604F09FFF454B1B78002B07
:1052C00040F0FD80BB69184604F096FF404B1B7808
:1052D000002B40F0F680BB69184604F08DFF3C4B74
:1052E0001B78002B40F0EF80BB69184604F084FF68
:1052F0000020FCF7B6FF7B699BB23A6992B2114677
:105300001846FCF72DFAFCF7FCFEFCF748FF314885
:10531000FCF7EBFF2D4B1B78002B05D07B88DBB215
:105320001846FCF79EFF02E01F20FCF79AFFFB687F
:105330009BB2BA6892B211461846FCF711FAFCF714
:10534000E0FEFCF746FF2348FCF7CFFF204B1B781D
:10535000002B40F0BA80BB69184604F04DFF1C4B8F
:105360001B78002B40F0B380BB69184604F044FF63
:10537000174B1B78002B40F0AC80BB69184604F03B
:105380003BFF134B1B78002B40F0A580BB691846F0
:1053900004F032FFFB689BB27A6892B2114618465D
:1053A000FCF7DEF90020FCF75CFFFCF7AAFEFCF737
:1053B00010FF0948FCF799FF044B1B78002B0DD018
:1053C0007B88DBB21846FCF74CFF0AE000000020A7
:1053D00002080020C4E10008ACE100081F20FCF72F
:1053E00040FF7B699BB27A6892B211461846FCF77F
:1053F000B7F9FCF786FEFCF7D2FE4148FCF775FFD3
:10540000404B1B78002B68D1BB69184604F0F4FEB2
:105410003C4B1B78002B62D1BB69184604F0ECFEB4
:10542000384B1B78002B5CD1BB69184604F0E4FEB6
:10543000344B1B78002B56D1BB69184604F0DCFEB8
:10544000FB689BB27A6892B211461846FCF788F95D
:10545000FCF757FEFCF7BDFE2948FCF746FF294B39
:105460001B78002B41D1FB69184604F0C5FE254B83
:105470001B78002B3BD1FB69184604F0BDFE214B85
:105480001B78002B35D1FB69184604F0B5FE1D4B87
:105490001B78002B2FD1FB69184604F0ADFE194B89
:1054A0001B78002B3FF47FAE26E000BF24E000BF56
:1054B00022E000BF20E000BF1EE000BF1CE000BFF4
:1054C0001AE000BF18E000BF16E000BF14E000BF04
:1054D00012E000BF10E000BF0EE000BF0CE000BF14
:1054E0000AE000BF08E000BF06E000BF04E000BF24
:1054F00002E000BF00E000BF00BF2037BD4680BD16
:10550000ACE100080208002080B582B000AF7D2326
:105510003B6000237B6004F063FE0346184607F0FF
:1055200087FD0020FCF79DFE0020FCF7BCFE00215B
:105530000020FCF749F940F2FF4140F28F10FCF7E0
:1055400073F9FCF731FAFCF7D2FCFCF75CFEFCF7D0
:1055500002FD2120FCF775FEFF20FCF782FE0020F3
:10556000FCF7A1FEFCF73DFDFCF7B1FDFCF731FEB9
:105570009A4B00221A7017E1994B1B78002B04D02C
:1055800003F01AFF03467B6001E01F237B607B680A
:10559000DBB21846FCF787FE7B68DBB21846FCF7E7
:1055A00060FE00210020FCF70FF94FF420714FF44A
:1055B000C870FCF739F9FCF7F7F90020FCF773FE27
:1055C0000020FCF74EFE40F281210020FCF7FCF8A1
:1055D00040F2FF4140F28F10FCF726F9FCF7E4F9A6
:1055E0000020FCF73EFE60213220FCF7B9F87D4830
:1055F000FCF77BFEEC21B420FCF7B2F87A48FCF70C
:1056000074FE774B1B78002B05D07B68DBB2184605
:10561000FCF727FE02E01F20FCF723FE4FF4367153
:105620003220FCF79DF87148FCF75FFE40F205312F
:10563000B420FCF795F86E48FCF757FE674B1B78D3
:10564000002B40F0B7803B68184604F0D5FD634B53
:105650001B78002B40F0B0803B68184604F0CCFD6E
:105660005E4B1B78002B40F0A9803B68184604F085
:10567000C3FD5A4B1B78002B40F0A2803B681846B4
:1056800004F0BAFD0020FCF7ECFD0020FCF70BFE57
:1056900000210020FCF798F84FF420714FF4C870F7
:1056A000FCF7C2F8FCF780F94D4B1B78002B05D0B6
:1056B0007B68DBB21846FCF7D4FD02E01F20FCF744
:1056C000D0FD474B1B78002B05D07B68DBB218461A
:1056D000FCF7E9FD02E01F20FCF7E5FD40F2812127
:1056E0000020FCF771F840F2FF4140F28F10FCF708
:1056F0009BF8FCF759F93A4B1B78002B05D07B68D7
:10570000DBB21846FCF7ADFD02E01F20FCF7A9FD57
:1057100060213220FCF724F83248FCF7E6FDEC214A
:10572000B420FCF71DF83048FCF7DFFD0020FCF743
:1057300098FD2B4B1B78002B03D0FF20FCF7B3FD0B
:1057400002E01F20FCF7AFFD4FF436713220FCF76A
:1057500007F82648FCF7C9FD40F20531B420FBF7F5
:10576000FFFF2348FCF7C1FD1C4B1B78002B29D100
:105770003B68184604F040FD184B1B78002B23D1E2
:105780003B68184604F038FD144B1B78002B1DD1E4
:105790003B68184604F030FD104B1B78002B17D1E6
:1057A0003B68184604F028FD0C4B1B78002B3FF497
:1057B000E3AE0EE000BF0CE000BF0AE000BF08E06F
:1057C00000BF06E000BF04E000BF02E000BF00E051
:1057D00000BF00BF0837BD4680BD00BF02080020E3
:1057E00000000020CCE10008D8E10008E0E100085A
:1057F000E8E1000880B582B000AF7D237B6004F053
:10580000EFFC0346184607F013FC0020FCF729FDC7
:105810000020FCF748FD00210020FBF7D5FF40F2F7
:10582000FF4140F28F10FBF7FFFFFCF7BDF8FCF7DC
:105830005EFBFCF7E8FCFCF78EFB2120FCF701FD8A
:10584000A34B1B78002B03D0FF20FCF70AFD02E0DE
:105850001F20FCF706FD0020FCF725FDFCF7C1FB2F
:10586000FCF735FCFCF7B5FC9A4B00221A7015E1E9
:1058700003F0A2FD03463B60954B1B78002B05D03F
:105880003B68DBB21846FCF7ECFC02E01F20FCF79B
:10589000E8FC8F4B1B78002B05D03B68DBB2184629
:1058A000FCF701FD02E01F20FCF7FDFC00210020B9
:1058B000FBF78AFF4FF420714FF4C870FBF7B4FF79
:1058C000FCF772F80020FCF7CCFC0020FCF7EBFCA6
:1058D00040F281210020FBF777FF40F2FF4140F2C8
:1058E0008F10FBF7A1FFFCF75FF80020FCF7B9FC75
:1058F00060213220FBF734FF7748FCF7F6FCEC21FF
:10590000B420FBF72DFF7548FCF7EFFC704B1B78BC
:10591000002B05D03B68DBB21846FCF7A2FC02E086
:105920001F20FCF79EFC40F2E6213220FBF718FF17
:105930006B48FCF7DAFC40F21931B420FBF710FF9A
:105940006848FCF7D2FC634B1B78002B40F0AC801E
:105950007B68184604F050FC5E4B1B78002B40F02F
:10596000A5807B68184604F047FC5A4B1B78002B37
:1059700040F09E807B68184604F03EFC554B1B7837
:10598000002B40F097807B68184604F035FC00201F
:10599000FCF767FC0020FCF786FC00210020FBF7E9
:1059A00013FF4FF420714FF4C870FBF73DFFFBF776
:1059B000FBFF474B1B78002B05D03B68DBB218463A
:1059C000FCF74FFC02E01F20FCF74BFC404B1B7820
:1059D000002B05D03B68DBB21846FCF764FC02E004
:1059E0001F20FCF760FC40F281210020FBF7ECFE59
:1059F00040F2FF4140F28F10FBF716FFFBF7D4FF98
:105A0000334B1B78002B05D03B68DBB21846FCF704
:105A100028FC02E01F20FCF724FC60213220FBF769
:105A20009FFE2D48FCF761FCEC21B420FBF798FEAB
:105A30002A48FCF75AFC0020FCF713FC40F2E62150
:105A40003220FBF78DFE2648FCF74FFC40F219315F
:105A5000B420FBF785FE2348FCF747FC1D4B1B7861
:105A6000002B29D17B68184604F0C6FB194B1B7824
:105A7000002B23D17B68184604F0BEFB154B1B7826
:105A8000002B1DD17B68184604F0B6FB114B1B7828
:105A9000002B17D17B68184604F0AEFB0D4B1B782A
:105AA000002B3FF4E5AE0EE000BF0CE000BF0AE0C3
:105AB00000BF08E000BF06E000BF04E000BF02E056
:105AC00000BF00E000BF00BF0837BD4680BD00BF7B
:105AD0000000002002080020CCE10008D8E1000806
