:020000040800F2
:1000000000000220096C0008656A0008676A0008A1
:10001000696A00086B6A00086D6A00080000000049
:100020000000000000000000000000006F6A0008EF
:10003000716A000800000000736A0008756A000811
:10004000596C0008596C0008596C0008596C00087C
:10005000596C0008596C0008596C0008596C00086C
:10006000596C0008596C0008596C0008596C00085C
:10007000596C0008596C0008596C0008596C00084C
:10008000596C0008596C0008596C0008596C00083C
:10009000596C0008596C0008596C0008596C00082C
:1000A000596C0008596C0008596C0008596C00081C
:1000B000596C0008596C0008596C0008596C00080C
:1000C000596C0008596C0008596C0008596C0008FC
:1000D000596C0008596C0008596C0008296B00081D
:1000E000596C0008596C0008596C0008596C0008DC
:1000F000596C0008596C0008596C0008596C0008CC
:10010000596C0008596C0008596C0008596C0008BB
:10011000596C0008596C0008596C0008596C0008AB
:10012000596C0008596C0008596C0008596C00089B
:10013000596C00080000000000000000596C000825
:10014000596C0008596C0008596C0008596C00087B
:10015000596C0008596C0008596C0008596C00086B
:10016000596C0008596C0008596C0008596C00085B
:10017000596C0008596C0008596C00080000000018
:1001800000000000596C00080000000000000000A2
:10019000596C00080000000000000000596C0008C5
:1001A000000000000000000000000000596C000882
:1001B000596C0008596C0008596C0008596C00080B
:0401C000596C00086E
:1001D00010B5054C237833B9044B13B10448AFF381
:1001E00000800123237010BD840000200000000067
:1001F0009092000808B5034B1BB103490348AFF3C5
:10020000008008BD000000008800002090920008D7
:1002100001F0FF01102A2BDB10F0070F08D010F8B7
:10022000013B013A8B422DD010F0070F42B3F6D1BB
:10023000F0B441EA012141EA014122F007047FF0D4
:1002400000070023F0E80256083C85EA010586EA2B
:10025000010685FA47F5A3FA87F586FA47F6A5FA67
:1002600087F68EB9EED1F0BC01F0FF0102F0070273
:1002700032B110F8013B013A83EA010313B1F8D11E
:100280000020704701387047002D06BF35460338FF
:10029000073815F0010F07D1013015F4807F02BF38
:1002A000013015F4C03F0130F0BC0138704700BF89
:1002B00053B94AB9002908BF00281CBF4FF0FF31CD
:1002C0004FF0FF3000F070B9ADF1080C6DE904CECD
:1002D00000F006F8DDF804E0DDE9022304B0704721
:1002E0002DE9F047089E0D4604460F46002B4AD1E3
:1002F0008A42944665D9B2FA82F343B102FA03FC0A
:10030000C3F120029F4020FA02F217439C404FEABB
:100310001C4E1FFA8CF5B7FBFEF1220C0EFB117779
:1003200042EA074201FB05F090420AD91CEB0202A7
:1003300001F1FF3780F01C81904240F219810239AF
:100340006244121AA4B2B2FBFEF00EFB102244EA81
:10035000024400FB05F5A5420AD91CEB040400F198
:10036000FF3280F00781A54240F2048164440238E4
:1003700040EA0140641B00211EB1DC400023C6E9B5
:100380000043BDE8F0878B4208D9002E00F0ED80D5
:100390000021C6E900050846BDE8F087B3FA83F1FD
:1003A000002949D1AB4202D3824200F2F880841A7C
:1003B00065EB030201201746002EE2D0C6E9004794
:1003C000DFE702B9FFDEB2FA82F3002B40F0908043
:1003D0008A1A4FEA1C471FFA8CFE0121B2FBF7F57F
:1003E00007FB1520220C42EA00420EFB05F090426A
:1003F00008D91CEB020205F1FF3802D2904200F24C
:10040000CB804546121AA4B2B2FBF7F007FB1022CC
:1004100044EA02440EFB00FEA64508D91CEB040486
:1004200000F1FF3202D2A64500F2BB801046A4EBD9
:100430000E0440EA05409FE7C1F120078B4022FAF5
:1004400007FC4CEA030C05FA01F420FA07F3FD401F
:100450004FEA1C492343B5FBF9F81FFA8CFE09FB50
:1004600018551C0C44EA054408FB0EF5A54202FA97
:1004700001F200FA01F00BD91CEB040408F1FF3A79
:1004800080F08880A54240F28580A8F1020864448B
:10049000641B9DB2B4FBF9F309FB134445EA044421
:1004A00003FB0EFEA64508D91CEB040403F1FF353F
:1004B0006CD2A6456AD9023B644443EA0843A3FBD5
:1004C0000295A4EB0E04AC42C846AE4656D353D0B8
:1004D00056B1B0EB080264EB0E0404FA07F7CA4009
:1004E000CC401743C6E9007418460021BDE8F087E8
:1004F000C3F1200102FA03FC20FA01F225FA01F10E
:100500009D402A434FEA1C471FFA8CFEB1FBF7F0CF
:1005100007FB1015110C41EA054100FB0EF58D4259
:1005200004FA03F408D91CEB010100F1FF382FD2C3
:100530008D422DD902386144491B92B2B1FBF7F5C7
:1005400007FB151142EA014205FB0EF1914208D961
:100550001CEB020205F1FF3816D2914214D9023D7C
:100560006244521A45EA004138E73146304608E70E
:100570003946E6E61046FBE64845A9D2B9EB020843
:1005800065EB0C0E013BA3E74546EAE72B4694E7F3
:100590004046D1E7D0467BE7023D624432E7084659
:1005A0000AE76444023842E7704700BF10B5114CB7
:1005B00000222021204606F047FD1E2006F09EFB6B
:1005C00001222021204606F03FFD322006F096FB56
:1005D00001221146084806F037FD07480022022193
:1005E00006F032FDBDE8104003480122042106F068
:1005F0002BBD00BF000802400004024070B500227D
:10060000012105461B481B4E06F01EFD194800221D
:10061000042106F019FD17480022022106F014FDFE
:1006200014480122022106F00FFD082415F0800273
:1006300018BF01220421304606F006FD0D480022B5
:10064000022106F001FD013C0A480122022106F0C8
:10065000FBFC14F0FF044FEA4505E7D122460548AC
:10066000022106F0F1FC0122BDE87040014811466C
:1006700006F0EABC0004024070B5002201210546E4
:100680001B481B4E06F0E0FC19480122042106F02D
:10069000DBFC17480022022106F0D6FC1448012298
:1006A000022106F0D1FC082415F0800218BF0122B7
:1006B0000421304606F0C8FC0D480022022106F055
:1006C000C3FC013C0A480122022106F0BDFC14F0E3
:1006D000FF044FEA4505E7D122460548022106F00E
:1006E000B3FC0122BDE870400148114606F0ACBCE5
:1006F0000004024008B5B720FFF780FF5020FFF745
:10070000BBFF0020FFF7B8FFB820FFF777FF0020FE
:10071000FFF7B2FF0020FFF7AFFFB920FFF76EFF32
:100720000020FFF7A9FF0020FFF7A6FFBA20FFF780
:1007300065FF1420FFF7A0FF4220FFF79DFFBB20BD
:10074000FFF75CFF0320FFF797FF0020FFF794FF00
:10075000B920FFF753FF0120FFF78EFF0020FFF7BE
:100760008BFFDE20FFF74AFF0020FFF785FF002008
:10077000FFF782FFC920FFF741FF0220FFF77CFF50
:100780002320FFF779FFB720FFF738FF5020FFF74E
:1007900073FF0020FFF770FFB820FFF72FFF002046
:1007A000FFF76AFF0020FFF767FFB920FFF726FF7A
:1007B0000020FFF761FF0020FFF75EFFBA20FFF780
:1007C0001DFF2D20FFF758FF8220FFF755FFBB20AC
:1007D000FFF714FF0720FFF74FFF0020FFF74CFF44
:1007E000B920FFF70BFF0120FFF746FF0020FFF7BE
:1007F00043FFC920FFF702FF0220FFF73DFF232040
:10080000FFF73AFF642006F079FACA20FFF7F6FEF8
:100810000120FFF731FF2320FFF72EFFCB20FFF74A
:10082000EDFE1020FFF728FF0520FFF725FFCC2065
:10083000FFF7E4FE0520FFF71FFF1020FFF71CFF66
:10084000D020FFF7DBFE0020FFF716FF0020FFF7A8
:1008500013FFB120FFF7D2FE1820FFF70DFF022093
:10086000FFF70AFFB220FFF7C9FEA020FFF704FF41
:100870000A20FFF701FFB320FFF7C0FEA020FFF71B
:10088000FBFE0C20FFF7F8FEB420FFF7B7FE902028
:10089000FFF7F2FE0120FFF7EFFEB520FFF7AEFEF7
:1008A0000020FFF7E9FE0520FFF7E6FEB620FFF780
:1008B000A5FE0B20FFF7E0FEC020FFF7DDFEDE20E7
:1008C000FFF79CFE0320FFF7D7FE0020FFF7D4FEC2
:1008D000D620FFF793FE0120FFF7CEFE0020FFF7A2
:1008E000CBFEDB20FFF78AFE5820FFF7C5FE002075
:1008F000FFF7C2FEB720FFF781FE4B20FFF7BCFEDB
:100900000220FFF7B9FEBDE808402C20FFF776BEB5
:1009100007B58DF80700084807F041F9012802469D
:10092000F9D14FF47A730DF10701034806F08EFFF9
:1009300003B05DF804FB00BF1C0800201FB5FF23B7
:100940008DF80E3000238DF80F300A4807F027F994
:1009500001280346F9D14FF47A7200920DF10E018D
:100960000DF10F02034807F025F89DF80F0005B0C0
:100970005DF804FB1C08002038B50B4D00224FF435
:1009800080510446284606F05FFB0020FFF7C0FFB9
:100990002046FFF7BDFF28460122BDE838404FF44E
:1009A000805106F051BB00BF0004024038B50B4D2A
:1009B00000224FF480510446284606F045FB802073
:1009C000FFF7A6FF2046FFF7A3FF28460122BDE858
:1009D00038404FF4805106F037BB00BF000402409E
:1009E00010B504461620FFF7C7FFE0080138C0B273
:1009F000FFF7DCFF1720FFF7BFFF04F00700BDE89B
:100A00001040FFF7D3BF000038B50A4D00224FF465
:100A10008051284606F018FBC020FFF779FFFFF74A
:100A20008DFF012204464FF48051284606F00CFB4E
:100A3000204638BD0004024038B50A4D00224FF46C
:100A40008051284606F000FB4020FFF761FFFFF7CA
:100A500075FF012204464FF48051284606F0F4FA4F
:100A6000204638BD0004024010B50C46FFF784FF55
:100A70002046BDE81040FFF799BF000010B50F4CAD
:100A800001224FF40071204606F0DEFA0A2006F03B
:100A900035F900224FF40071204606F0D5FA3220D5
:100AA00006F02CF9204601224FF4007106F0CCFA32
:100AB000BDE81040322006F021B900BF000402401A
:100AC00008B506210520FFF7CFFF27210620FFF7F5
:100AD000CBFF04210720FFF7C7FF27210820FFF7DE
:100AE000C3FF04210920FFF7BFFF27210A20FFF7DA
:100AF000BBFF0120FFF740FF0020FFF757FF8020DA
:100B0000FFF754FFBDE808400A2006F0F7B808B523
:100B1000FFF792FF0306FBD408BD08B5FFF78CFF73
:100B20000307FBD408BD08B5FFF786FF4307FBD5D5
:100B300008BD08B52921E020FFF796FF0321E12039
:100B4000FFF792FF0B21E220FFF78EFF0321E32046
:100B5000FFF78AFFE4200121FFF786FFFFF7E3FF9D
:100B6000BDE808400A2006F0C9B808B50020FFF724
:100B700003FFFFF749FF40F00100C0B2FFF716FF87
:100B8000FFF742FFC307FBD408BD08B50120FFF7FC
:100B9000F3FEFFF739FFBDE8084000F0E700FFF77C
:100BA00005BF08B50120FFF7E7FEFFF72DFF40F076
:100BB0000200BDE80840C0B2FFF7F8BE08B501204A
:100BC000FFF7DAFEFFF720FFBDE8084000F0FE0067
:100BD000FFF7ECBE08B50220FFF7CEFEFFF714FFCB
:100BE000BDE8084000F03F00FFF7E0BE08B5022076
:100BF000FFF7C2FEFFF708FFBDE8084000F0F9006C
:100C0000FFF7D4BE08B50320FFF7B6FEFFF7FCFEE2
:100C1000BDE8084000F0FB00FFF7C8BE08B50320A0
:100C2000FFF7AAFEFFF7F0FE40F00400BDE8084021
:100C3000C0B2FFF7BBBE08B50320FFF79DFEFFF76C
:100C4000E3FEBDE8084000F0FC00FFF7AFBE08B5CA
:100C50001020FFF791FEFFF7D7FE60F07F00BDE8A0
:100C60000840C0B2FFF7A2BE08B51020FFF784FE0F
:100C7000FFF7CAFEBDE8084000F0EF00FFF796BEA0
:100C800008B51020FFF778FEFFF7BEFEBDE808406C
:100C900000F0F300FFF78ABE08B51120FFF76CFEE5
:100CA000FFF7B2FEBDE8084000F0F300FFF77EBE9C
:100CB00008B51220FFF760FEFFF7A6FEBDE808406A
:100CC00000F07F00FFF772BE08B51220FFF754FE58
:100CD000FFF79AFE40F04000BDE80840C0B2FFF7C1
:100CE00065BE08B51220FFF747FEFFF78DFE40F006
:100CF0002000BDE80840C0B2FFF758BE08B512207A
:100D0000FFF73AFEFFF780FEBDE8084000F0DF0085
:100D1000FFF74CBE08B51220FFF72EFEFFF774FE5A
:100D2000BDE8084000F0EF00FFF740BE08B5122014
:100D3000FFF722FEFFF768FEBDE8084000F0F7006D
:100D4000FFF734BE08B51220FFF716FEFFF75CFE72
:100D500040F00800BDE80840C0B2FFF727BE08B564
:100D60001220FFF709FEFFF74FFEBDE8084000F034
:100D7000F800FFF71BBE08B51320FFF7FDFDFFF7D6
:100D800043FEBDE8084000F07F00FFF70FBE08B546
:100D90001320FFF7F1FDFFF737FEBDE8084000F034
:100DA000BF00FFF703BE08B51320FFF7E5FDFFF70F
:100DB0002BFEBDE8084000F0DF00FFF7F7BDF8B5F7
:100DC00004460139072CC7B2CEB2C1F307254FF054
:100DD000140018D8FFF7D0FD0020FFF7E7FD15201D
:100DE000FFF7CAFD3846FFF7E1FD1A20FFF7C4FD03
:100DF0003046FFF7DBFD1B20FFF7BEFD2846BDE8B0
:100E0000F840FFF7D3BDFFF7B7FDE0080138C0B2E7
:100E1000FFF7CCFD1520FFF7AFFD07F00700E2E775
:100E200010B504461C20FFF7A7FD601EC0B2FFF7F7
:100E3000BDFD1D20FFF7A0FDBDE810400020FFF71D
:100E4000B5BD10B504461E20FFF796FD601EC0B26A
:100E5000BDE81040FFF7AABD10B504461F20FFF7FC
:100E60008BFD601EC0B2BDE81040FFF79FBD10B5FE
:100E7000C1B204462020FFF7F7FDC4F3072121206B
:100E8000FFF7F2FDC4F307412220FFF7EDFD210E2D
:100E90002320BDE81040FFF7E7BD10B5C1B20446FE
:100EA0002420FFF7E1FD210A2520BDE81040FFF7CF
:100EB000DBBD38B50C460546C1B22620FFF7D4FD90
:100EC000290A2720FFF7D0FDE1B22820FFF7CCFD4B
:100ED000210A2920BDE83840FFF7C6BD38B50C46C9
:100EE0000546C1B22A20FFF7BFFD290A2B20FFF7D4
:100EF000BBFDE1B22C20FFF7B7FD210A2D20BDE894
:100F00003840FFF7B1BD10B5C1B204462E20FFF73F
:100F1000ABFDC4F307212F20FFF7A6FDC4F3074163
:100F20003020FFF7A1FD210E3120BDE81040FFF772
:100F30009BBD10B5C1B204463220FFF795FD210AD2
:100F40003320BDE81040FFF78FBD38B50C4605468D
:100F5000C1B23420FFF788FD290A3520FFF784FD50
:100F6000E1B23620FFF780FD210A3720BDE8384086
:100F7000FFF77ABD38B50C460546C1B23820FFF7F9
:100F800073FD290A3920FFF76FFDE1B23A20FFF720
:100F90006BFD210A3B20BDE83840FFF765BD10B569
:100FA000C1B204465020FFF75FFDC4F30721512072
:100FB000FFF75AFDC4F307415220FFF755FD210EFC
:100FC0005320BDE81040FFF74FBD10B5C1B2044635
:100FD0005420FFF749FD210A5520BDE81040FFF7D6
:100FE00043BD38B50C460546C1B25620FFF73CFD5F
:100FF000290A5720FFF738FDE1B25820FFF734FDEA
:10100000210A5920BDE83840FFF72EBD38B50C46FF
:101010000546C1B25A20FFF727FD290A5B20FFF7DA
:1010200023FDE1B25C20FFF71FFD210A5D20BDE832
:101030003840FFF719BD08B55E20FFF79DFCFFF7AC
:10104000E3FCBDE8084000F0FB00FFF7AFBC08B5CB
:101050005E20FFF791FCFFF7D7FCBDE8084000F0E9
:10106000FC00FFF7A3BC38B50C460546C1B26320AF
:10107000FFF7FAFC290A6420FFF7F6FCE1B26520CD
:10108000FFF7F2FC210A6620BDE83840FFF7ECBC10
:1010900008B56720FFF770FCA220FFF787FCBDE8CA
:1010A0000840FFF73ABD38B5054668200C46FFF703
:1010B00063FCE8B2FFF77AFC6920FFF75DFC280AC1
:1010C000FFF774FC6A20FFF757FCE0B2FFF76EFCF5
:1010D0006B20FFF751FC200ABDE83840FFF766BCE3
:1010E00038B505466C200C46FFF746FCE8B2FFF722
:1010F0005DFC6D20FFF740FC280AFFF757FC6E20CF
:10110000FFF73AFCE0B2FFF751FC6F20FFF734FC29
:10111000200ABDE83840FFF749BCFFF7C4BFFFF71E
:10112000DFBF38B5054670200C46FFF725FCE8B256
:10113000FFF73CFC7120FFF71FFC280AFFF736FC85
:101140007220FFF719FCE0B2FFF730FC7320FFF7C5
:1011500013FC200ABDE83840FFF728BC08B576200C
:10116000FFF70AFCE020FFF721FCBDE80840FFF78D
:10117000D4BC08B59020FFF7FFFBFFF745FC40F01B
:101180001000BDE80840C0B2FFF710BCFFF7C5BCB7
:1011900010B504469120FFF7EFFBFFF735FC00F098
:1011A0000F0343EA0410C0B2BDE81040FFF7FEBBD6
:1011B00010B504469120FFF7DFFBFFF725FC00F098
:1011C000F0002043BDE81040FFF7F0BB08B59220C7
:1011D000FFF7D2FBFFF718FCBDE8084000F09F00C6
:1011E000FFF7E4BB08B59220FFF7C6FBFFF70CFC46
:1011F000BDE8084000F0E300FFF7D8BB08B5922037
:10120000FFF7BAFBFFF700FCBDE8084000F0FC0068
:10121000FFF7CCBB10B5C1B204469320FFF724FC06
:10122000C4F307219420FFF71FFCC4F30741952066
:10123000FFF71AFC210E9620BDE81040FFF714BC02
:1012400010B5C1B204469720FFF70EFC210A982082
:10125000BDE81040FFF708BC38B50C460546C1B2E2
:101260009920FFF701FC290A9A20FFF7FDFBE1B264
:101270009B20FFF7F9FB210A9C20BDE83840FFF7CF
:10128000F3BB10B5C1B204469D20FFF7EDFBC4F3DC
:1012900007219E20FFF7E8FBC4F307419F20FFF7DB
:1012A000E3FB210EA020BDE81040FFF7DDBB10B529
:1012B000C1B20446A120FFF7D7FB210AA220BDE856
:1012C0001040FFF7D1BB38B50C460546C1B2A3208C
:1012D000FFF7CAFB290AA420FFF7C6FBE1B2A5204D
:1012E000FFF7C2FB210AA620BDE83840FFF7BCBBD0
:1012F00010B5C1B20446A720FFF7B6FBC4F307211F
:10130000A820FFF7B1FBC4F30741A920FFF7ACFB0E
:10131000210EAA20BDE81040FFF7A6BB10B5C1B250
:101320000446AB20FFF7A0FB210AAC20BDE810402B
:10133000FFF79ABB38B50C460546C1B2AD20FFF7A2
:1013400093FB290AAE20FFF78FFBE1B2AF20FFF736
:101350008BFB210AB020BDE83840FFF785BB38B5CC
:101360000C460546C1B2B120FFF77EFB290AB22028
:10137000FFF77AFBE1B2B320FFF776FB210AB42036
:10138000BDE83840FFF770BB08B5B720FFF7F4FAA7
:10139000FFF73AFBBDE8084000F07F00FFF706BB0F
:1013A00008B5B720FFF7E8FAFFF72EFBBDE80840C5
:1013B00000F0BF00FFF7FABA08B5B720FFF7DCFA74
:1013C000FFF722FBBDE8084000F0DF00FFF7EEBAB0
:1013D00008B5B720FFF7D0FAFFF716FBBDE80840C5
:1013E00000F0EF00FFF7E2BA08B5B720FFF7C4FA44
:1013F000FFF70AFBBDE8084000F0F300FFF7D6BA9C
:1014000008B5B720FFF7B8FAFFF7FEFABDE80840C5
:1014100000F0FC00FFF7CABA10B50446BB20FFF786
:10142000ABFA2046BDE81040FFF7C0BA08B5CC20A3
:10143000FFF7A2FAFFF7E8FA00F07F00BDE80840E6
:1014400040F04000FFF7B2BA08B5CC20FFF794FA9D
:10145000FFF7DAFA00F0DF00BDE8084040F01000C6
:10146000FFF7A4BA08B5CC20FFF786FAFFF7CCFA4D
:1014700000F0EF00BDE8084040F02000FFF796BA0A
:1014800008B5CD20FFF778FAFFF7BEFA60F07F00CD
:10149000BDE80840C0B2FFF789BA08B5CD20FFF714
:1014A0006BFAFFF7B1FABDE8084000F07F00FFF7E4
:1014B0007DBA08B5CD20FFF75FFAFFF7A5FA40F037
:1014C0004000BDE80840C0B2FFF770BA08B5CD20B3
:1014D000FFF752FAFFF798FABDE8084000F0BF00A6
:1014E000FFF764BA08B5CD20FFF746FAFFF78CFA8C
:1014F00040F01000BDE80840C0B2FFF757BA08B589
:10150000FFF733FBFFF7DCFAFFF713FBFFF73DFBB9
:10151000FFF747FBFFF752FBFFF75CFBFFF766FBAC
:10152000FFF770FBFFF787FBFFF7DCFFFFF70AFC15
:10153000FFF7F0FBFFF713FCFFF7BAFBFFF733FCF5
:10154000FFF719FCFFF723FC4FF4A0614FF4C870BC
:10155000FFF735FCA020FFF743FA1820FFF70CFA3D
:101560001320FFF723FA1920FFF706FA0220FFF7EE
:101570001DFA0A20FFF754FC0C20FFF762FC022042
:10158000FFF76AFCFFF77CFBFFF755FDBDE808405D
:10159000FFF75DBD08B5CD20FFF7EEF9FFF734FA90
:1015A000BDE8084000F0F300FFF700BA08B5CD2011
:1015B000FFF7E2F9FFF728FA00F0F700BDE808406E
:1015C00040F00400FFF7F2B908B5CD20FFF7D4F9D9
:1015D000FFF71AFA00F0FB00BDE8084040F00800F1
:1015E000FFF7E4B908B5CD20FFF7C6F9FFF70CFA0D
:1015F00040F00C00BDE80840C0B2FFF7D7B908B50D
:10160000CD20FFF7B9F9FFF7FFF9BDE8084000F07A
:10161000FC00FFF7CBB908B5CD20FFF7ADF9FFF718
:10162000F3F900F0FD00BDE8084040F00100FFF7CD
:10163000BDB908B5CD20FFF79FF9FFF7E5F900F038
:10164000FE00BDE8084040F00200FFF7AFB908B562
:10165000CD20FFF791F9FFF7D7F940F00300BDE87F
:101660000840C0B2FFF7A2B908B5CE20FFF784F951
:10167000FFF7CAF900F09F00BDE8084040F0800085
:10168000FFF794B910B50446CF20FFF775F920464F
:10169000BDE81040FFF78AB910B50446D220FFF725
:1016A0006BF92046FFF782F9D320FFF765F9E000D8
:1016B00000F0F800FFF77AF9D420FFF75DF9A001F8
:1016C00000F0C000BDE81040FFF770B910B5044647
:1016D000D520FFF751F92046FFF768F9D620FFF72C
:1016E0004BF9E00000F0F800FFF760F9D720FFF7B2
:1016F00043F9A00100F0C000BDE81040FFF756B963
:1017000010B50446FFF78AFA0420FFF735F9013CCB
:1017100014F8010F28B9FFF700FABDE81040FFF7F1
:1017200071BAFFF743F9FFF7F2F9F1E738B505466B
:1017300004200C46FFF720F92544AC4200D138BD07
:1017400014F8010BFFF732F9FFF7E1F9F5E770B58F
:10175000054604200C46FFF70FF925440326AC424A
:1017600000D170BD14F8012BC2F3810303EB5213B7
:10177000520002F006021344B3FBF6F39B0003F0A1
:10178000FC00FFF713F9FFF7C2F9E8E72DE9F84F7E
:10179000054604200F461646FFF7EEF87C1E6C4304
:1017A0004FF0000906EB050BB94510D004EB060815
:1017B0000BEB040A05E018F8010BFFF7F7F8FFF749
:1017C000A6F9D045F7D109F10109641BECE7BDE8A2
:1017D000F88F2DE9F0470646042088469146FFF72A
:1017E000CBF84FEA580A0AF1FF3A0027474511D0D3
:1017F000AAEB57047443002509EB540406E06B0878
:101800000135E05CFFF7D2F8FFF781F9B542F6D178
:101810000137EBE7BDE8F0872DE9F84F06460420D5
:101820000F469046FFF7A8F84FEA570A0AF1FF3A29
:101830004FF000094FF0030BB9451FD0AAEB590434
:101840007443002508EB540413E06B080135E25C97
:10185000C2F3810303EB5213520002F00602134459
:10186000B3FBFBF39B0003F0FC00FFF79FF8FFF7CF
:101870004EF9B542E9D109F10109DDE7BDE8F88F7C
:101880002DE9F84F0F460546164604207C1EFFF74B
:1018900073F86C434FF0000906EB050B0322B945C2
:1018A0001ED004EB06080BEB040A13E018F8011B2A
:1018B000C1F3810303EB5113490001F006010B440E
:1018C000B3FBF2F39B0003F0FC00FFF76FF8FFF7A8
:1018D0001EF90322D045E9D109F10109641BDEE7B5
:1018E000BDE8F88F10B539484FF4004105F0A6FB6C
:1018F00008B9374B187037480122202105F0A4FBA6
:1019000035493648022206F090FC08B104F0EAFF9F
:10191000FEF74CFEFEF7EEFEFFF7B0F8FFF78CF88F
:1019200010F00204FAD1FFF7EAFDFFF7CDF9142019
:1019300005F0E4F92A48FFF79AFA4FF4C870FFF768
:10194000ACFA21462046FFF7B4FA2548FFF727FBFB
:101950004FF4C870FFF739FB21462046FFF741FBE3
:101960004FF4A0614FF4C870FFF750FB2046FFF71B
:1019700093FE2046FFF7AAFE21462046FFF793FB81
:1019800040F2FF4140F28F10FFF7AAFBFFF7E6FBA2
:10199000FFF74CFDFFF768FEFFF764FDFFF7F4FC6F
:1019A000FFF7FEFCFFF708FDFFF712FDFFF71CFD38
:1019B000FFF726FD0420FFF72FFDFFF7F2F804F0F4
:1019C000D3FBBDE8104004F095BC00BF0008024006
:1019D0000000002000000240A0000020BC08002001
:1019E00000204E0038B5884C2378012B55D1FFF7E5
:1019F00085F9FF20FFF750FE0020FFF767FE00216A
:101A00005020FFF730FBFFF7C5FDFFF7F8FD00237F
:101A100023707E4B196842F21072914240F0F380BD
:101A200042F21172E0201A60FFF736FE00210846EC
:101A3000774CFFF738FB40F2FF4140F28F10FFF781
:101A40004FFBFFF78BFB4E2323704F236370202344
:101A5000A37044235422E370002541232371627153
:101A6000A371E571FFF7BEFDFFF7F1FDFFF7FAFC8B
:101A70002846FFF711FEE020FFF728FEFFF719FDCB
:101A80002120FFF7FFFD64204FF4B471FFF7EBFA5C
:101A90002046BDE83840FFF733BE022B11D1FFF7D7
:101AA0002DF90020FFF7F8FD00210846FFF7FBFAAB
:101AB00040F2FF4140F28F10FFF712FBFFF74EFBA1
:101AC000A5E7032B02D1FFF719F9A2E7043B012B8D
:101AD0009FD8504B504A1B78D35C1F2B99D801A23A
:101AE00052F823F0651B00086B1B0008711B0008EF
:101AF000771B00087D1B0008831B0008891B00085A
:101B00008F1B0008951B00089B1B0008A11B0008E9
:101B1000A71B0008AD1B0008B31B0008B91B000879
:101B2000BF1B0008C51B0008CB1B0008D11B000809
:101B3000D71B0008131A0008131A0008131A00080C
:101B4000DD1B0008E31B0008131A0008131A000825
:101B5000E91B0008EF1B0008F51B0008FB1B000831
:101B6000011C000800F01CFA53E700F059FA50E796
:101B700000F07AFB4DE701F079FB4AE701F0D4FB76
:101B800047E700F08FFC44E700F00AFD41E701F071
:101B900067FD3EE700F010FD3BE701F05BFF38E733
:101BA00002F0B0F835E702F001FA32E702F052FB3A
:101BB0002FE702F0A3FC2CE702F0C6FD29E702F0B4
:101BC000EFFE26E700F0B4FD23E703F0BBF820E7C3
:101BD00003F010FB1DE700F00DFF1AE703F0A6FC71
:101BE00017E703F087FE14E701F02EFC11E701F080
:101BF00011F90EE704F05AF80BE701F093F908E742
:101C000001F086FC05E738BDA2040020A4050020F1
:101C1000A3040020A1040020AB07002030B500EB96
:101C20004101002348F20844884201D1184630BDE2
:101C300030F8022BD2B25340082203F001055B08B2
:101C40000DB163409BB2013A12F0FF02F5D1EBE710
:101C5000F8B59D4B00221A609C4B1D78012D34D0A5
:101C6000022D3DD0002D40F09081994999488A7805
:101C7000027022BB984999480E230B80037893B1D8
:101C80004A800222964806F088F808B104F02AFE3D
:101C90008F490222924806F0C8FA00285BD0BDE8BE
:101CA000F84004F01FBE01220270CB8025221423CD
:101CB0004A800B810622C0238A804B81E2E7012201
:101CC0001A70884B08681860E4E781498648022248
:101CD0001A700B88DA1ED2B2027082488380D9E76C
:101CE0001A70814B7F4C1E7879497200771CA01DB9
:101CF000023606F098FC39462046FFF78FFF34F88D
:101D0000162034F8173003EB02239842C0D16388C1
:101D1000012B02D1A388052B10D06F4970480E23E8
:101D20000B8001234B806E230522CB805E238A80AB
:101D30000B8106F032F808B104F0D4FD644968481C
:101D4000022206F072FA08B104F0CCFD6388012B80
:101D500002D1664A1370F8BD312B03D1634B0222C6
:101D60001A70F8E703F03F03302B40F0DE80238940
:101D7000E1885F4A062B535401D0122B02D15B4AF3
:101D800004201070A288082A07D1194305D163895D
:101D9000002B3DD1554B0322E2E7122B09D8102B23
:101DA00045D8002B35D0012BD5D1524D0023083A10
:101DB00035E0132B4ED0173B012BCCD8A6894E4AC9
:101DC0004E4BA07CE5890021302E51709170D1706E
:101DD0001171517159709970D97019715971218AA5
:101DE0006BD1302D5FD130295DD11070A58AE08A8A
:101DF000228BA17E26E034F810006854D9B2981DD9
:101E00009142C0B203F10103F5DB00236B54A2E75A
:101E10000B463B4D083AF1E734F810006854D9B24C
:101E2000981D9142C0B203F10103F5DBEDE7324B9F
:101E3000A589A17CE08900225A709A70DA701A7123
:101E40005A71228A302D69D130285DD1302A5BD178
:101E5000197080E7A589284BA17CE0890022302DEC
:101E60005A709A70DA701A715A71228A14D1302815
:101E700008D1302A06D11970224BA28A1A7000228A
:101E80005A7068E73028D2B207BF1A7059701870BC
:101E90005A7018BF9970EFE71D702C255D7098700F
:101EA000DA701971E8E7302DC9B207BF11705070B0
:101EB0001570517018BF907098E716702C265670E8
:101EC0009570D170107191E7A4050020CA07002019
:101ED000A0000020A0040020A0020020A8050020EF
:101EE000BC080020AA050020A9050020A2040020AB
:101EF000AB070020F4070020C4070020BE07002025
:101F0000CC070020BC0700203028D2B207BF1A70CF
:101F1000597018705A7018BF99701CE72C241D70E6
:101F20005C709870DA70197115E7312B7FF413AF7C
:101F3000A388062B09D1E388012B7FF40CAF144B47
:101F400002221A70134B00220AE7082B05D1124B0C
:101F500022891A700E4B0422F3E70A2B7FF4FBAEA2
:101F600063890E4A2089C8214B4342F82030E38917
:101F7000A0894B4342F82030074B00221A70044BD3
:101F800005221A70034B0122EAE61A7080E600BFB0
:101F9000A2040020AA070020A1040020B00700200E
:101FA00010B50020FFF778FB0020FFF78FFB002122
:101FB0000846FFF778F840F2FF4140F28F10FFF734
:101FC0008FF8FFF7CBF8134B1B7803B3FF20FFF715
:101FD00063FB114CFFF72AFAFFF746FBFFF776FA8F
:101FE000FFF75BFAFFF73EFA2120FFF74BFBFFF705
:101FF000EBFAFFF72CFBE1217420FFF734F82046C1
:10200000FFF77EFB054A00231370237010BD1F20CD
:10201000DDE700BF00000020CC070020A204002064
:102020002DE9F0470024A8B04C22214601A80094D5
:1020300006F07DFA4C22214615A8149406F077FA92
:102040002046FFF729FB2046FFF740FB21462046AC
:10205000FFF729F8804E40F2FF4140F28F10FFF762
:102060003FF8FFF77BF8FFF7E1F9FFF7FDFAFFF71D
:10207000F9F92120FFF706FB3378002B00F0DE8012
:10208000FF20FFF709FB754C0020FFF71FFBFFF750
:1020900004FAFFF70EFAE1217420FEF7E4FFFFF7E0
:1020A00093FAFFF7D4FA2046FFF72AFB00232370A8
:1020B0003378002B00F0C4801C20FFF7EDFA0020DD
:1020C000FFF704FB5A213A20FEF7EDFF4FF49B6126
:1020D0005C20FFF705F8FFF741F83378002B00F09C
:1020E000B1801C20FFF7D8FA0020FFF7EFFA5A2141
:1020F0004FF48F705A4CDFF86C81FEF7D4FF4FF429
:102100009B614FF49F70FEF7EBFFFFF727F8FFF797
:10211000B7F9FFF7DBF9FFF73DFAFFF770FA4F2247
:102120005423627062714C222370A2715023E271B9
:1021300041220025A3704421202322725222E37001
:1021400021716272A372E37223736373A373E573E5
:1021500088F800500E2701350F2D08BF002569466D
:102160002A4600238A46A05C01F8010B01320F2A9F
:1021700003F1010308BF0022262BF4D1013F781C94
:1021800008BF0E273A460DF15009A15C03F809106B
:10219000013A511C08BF0E22013BF6D23378002BC6
:1021A00052D01C20FFF778FA0020FFF78FFA5A214F
:1021B0003A20FEF778FF4FF49B615C20FEF790FF1A
:1021C000FEF7CCFF0020FFF767FA3378002B3DD0F5
:1021D0001C20FFF77BFA5A213A20FEF744FF5046B5
:1021E000FFF78EFA33789BB31C20FFF755FA0020D7
:1021F000FFF76CFA5A214FF49070FEF754FF4FF43A
:102200009B614FF49F70FEF76BFFFEF7A7FF5A210B
:102210004FF48F70FEF727FF0020FFF73DFA337869
:10222000C3B11C20FFF752FA4846FFF769FA98F845
:102230000030002B8FD028B0BDE8F0871F2020E7AA
:102240001F203AE71F204DE71F20ABE71F20C0E704
:102250001F20CAE71F20E5E700000020F407002048
:10226000A3040020A20400202DE9F843894B8A4CE6
:10227000DFF82C9247221A704F225A709A7044222B
:10228000DA7020221A714C225A7155229A71432217
:10229000DA7100254B225D721A722846FFF7FCF9AD
:1022A0002846FFF713FA29462846FEF7FCFE40F2BF
:1022B000FF4140F28F10FEF713FFFEF74FFFFFF7CD
:1022C000B5F8FFF7D1F9FFF7CDF8FFF7FFF8FFF703
:1022D000E4F82570714D2B78002B00F0CF80FF20A3
:1022E000FFF7DAF94FF416718020FEF7BCFEFFF716
:1022F00051F9FFF790F94846FFF702FA2378002BCF
:1023000040F0BA80462004F0F9FC2120FFF7BAF92A
:1023100040F22B21A420FEF7A6FEFFF73BF9FFF7C2
:102320006EF95C48FFF7ECF92678002E40F0A480A7
:10233000462004F0E3FC3046FFF7C8F94FF4E4719F
:102340007D20FEF790FEFFF731F9FFF772F9514853
:10235000FFF7D6F92678002E40F08E80462004F054
:10236000CDFC3046FFF7B2F94FF4AF717D20FEF798
:102370007AFEFFF729F9FFF75CF94648FFF7C0F945
:102380002678002E78D1462004F0B8FC3046FFF7BE
:102390009DF94FF482716D20FEF765FEFFF722F97B
:1023A000FFF755F93B48FFF7ABF92378002B63D1D2
:1023B0004FF4FA7004F0A2FC364F4FF00208237875
:1023C000002B59D14FF482716D20FEF74CFE2B7813
:1023D000002B58D0E020FFF75FF90020FFF776F9D7
:1023E0003846FFF78DF94FF4FA7004F087FC237834
:1023F000002B41D14FF482716D20FEF734FE2B7813
:10240000002B42D0FF20FFF747F90020FFF75EF9CD
:102410003846FFF775F94FF4FA7004F06FFC237833
:1024200053BB4FF482716D20FEF71DFE2B7873B302
:102430000320FFF731F90020FFF748F93846FFF78E
:102440005FF94FF4FA7004F059FC2678A6B9B8F198
:10245000010F15D14FF482716D20FEF704FE304656
:10246000FFF71AF93046FFF731F90A48FFF748F944
:102470002378002B3FF42FAFBDE8F8831F202FE710
:102480004FF001089BE71F20A5E71F20BBE71F2097
:10249000CFE700BFA3040020A2040020000000201A
:1024A0006E9300082DE9F8430020FFF7F5F80020AF
:1024B000FFF70CF900210846374F0024FEF7F3FD23
:1024C00040F2FF4140F28F10FEF70AFEFEF746FE93
:1024D0003C70FEF7D5FB2046FFF7DEF82046FFF7FD
:1024E000F5F82046FEF7C3FCFEF720FCFEF7BCFB28
:1024F000FEF7D2FB21462046FEF7F0FC4FF4FA200F
:10250000FEF701FD4FF4C870FEF713FD214620468B
:10251000FEF71BFD4FF4B471C620FEF72BFD3B7890
:1025200053BBFEF794FB3E7836BB322004F0E6FB4B
:10253000B04635465A2440F27A393B78E3B9A9B21D
:10254000A0B2FEF7CBFC3B78B3B9E6B90134B42CAA
:102550001BDC1D2CD8BF0026B8F1000F17D10135A8
:102560004D4516DC1D2DD8BF4FF00008022004F0A9
:10257000C5FB3B78002BE0D0FEF7E4FBBDE8F84359
:102580000648FEF774BC013CE1E70126E4E7013DA3
:10259000E6E74FF00108E9E7A204002000204E0022
:1025A00010B5044C00232370FEF79BFB2378002B0F
:1025B000FAD010BDA204002070B5FEF737FFFFF778
:1025C00053F8FEF74FFF2120FFF75CF80020FFF7DC
:1025D00063F80020FFF77AF8002108464D4DFEF71A
:1025E00062FD40F2FF4140F28F10FEF779FDFEF7E9
:1025F000B5FD2B78002B00F08580FF20FFF74CF80D
:102600000020FFF763F8A6214620FEF72CFDFEF719
:10261000DBFFFFF70EF84048FFF772F84FF4CB717D
:102620004620FEF720FDFEF7CFFFFFF702F83B48FC
:10263000FFF766F840F286214620FEF714FDFEF70C
:10264000C3FFFEF7F6FF3648FFF75AF84FF4C8719C
:10265000AA20FEF708FD2B78002B55D01C20FFF791
:102660001BF8FEF7BFFFFEF7F2FF2E48FFF748F812
:102670004FF40371C820FEF7F6FC2B78002B45D0F1
:10268000FF20FFF709F8284C264EFEF79DFFFEF7C6
:10269000D0FF2648FFF734F8002323700020FEF710
:1026A000FBFF0020FFF712F84FF4C871AA20FEF7D5
:1026B000DAFCFEF797FFFEF7CAFF3046FFF720F877
:1026C0002378F3B9642004F019FB2B7803B31C20A2
:1026D000FEF7E2FF0020FEF7F9FF4FF4C871AA20D1
:1026E000FEF7C1FCFEF77EFFFEF7B1FF3046FFF7B5
:1026F00007F823782BB9642004F000FB2378002B23
:10270000CCD070BD1F2079E71F20A8E71F20B8E7B5
:102710001F20DDE700000020789300087C9300086C
:102720008093000888930008A20400208A93000880
:102730002DE9F04F002085B0FEF7AEFF0020FEF738
:10274000C5FF00210846FEF7AEFCDFF8A49240F278
:10275000FF4140F28F10FEF7C3FCFEF7FFFCFEF7CF
:1027600065FEFEF781FFFEF76FFE2120FEF78AFF70
:1027700099F80030002B00F02881FF20FEF78CFF35
:102780000020FEF7A3FFFEF7A1FE0020FEF784FF66
:1027900000210846FEF787FC40F2FF4140F28F100F
:1027A000FEF79EFCFEF7DAFC99F80030002B00F0F3
:1027B0000E81FF20FEF770FFFEF714FFFEF739FFD2
:1027C0004FF4DC713820FEF74EFC8548FEF798FF89
:1027D0004FF41A719220FEF746FC8248FEF790FFF4
:1027E0004FF4E471E420FEF73EFC7F48FEF788FFDB
:1027F0007E4B00251D70012301932E4699F8003071
:10280000002B00F0E6800320B4B2FEF745FFC4F1D0
:10281000C80292B2C4F5967811461FFA88F8B8201B
:102820000392FEF77AFC41465420FEF778FC4146BD
:102830004FF48E70FEF775FCFEF72AFCC4F1FA0324
:102840009BB2C4F5E17B194686201FFA8BFB04F589
:102850007A770293BFB2FEF726FC5946EA20FEF7CC
:102860003FFC04F24C4AFEF779FC39465420FEF74F
:1028700054FC1FFA8AFA39464FF48E70FEF74FFC6B
:102880005146B820FEF74DFCFEF702FC04F252312F
:1028900089B28620FEF707FC04F21A4189B2EA20C9
:1028A000FEF71EFCFEF75AFC012004F027FA002078
:1028B000FEF7F2FE039AB8201146FEF72EFC4146C1
:1028C0005420FEF72CFC41464FF48E70FEF729FC95
:1028D000FEF7DEFB029B86201946FEF7E4FB594615
:1028E000EA20FEF7FDFBFEF739FC39465420FEF7DF
:1028F00014FC39464FF48E70FEF711FC5146B82097
:10290000FEF70FFCFEF7C4FB04F23E3189B28620CD
:10291000FEF7C9FB04F2064189B2EA20FEF7E0FBAC
:10292000FEF71CFC019B002B55D00236642E05DD02
:102930000135EDB2062D06D0002301932B4B1B78F9
:10294000002B3FF45BAF99F80030002B46D00320FA
:10295000FEF7A2FE9621B820FEF7DFFBFA215420F5
:10296000FEF7DDFBFA214FF48E70FEF7DAFBFEF77F
:102970008FFBC8218620FEF796FB4FF4C871EA2032
:10298000FEF7AEFBFEF7EAFB40F206415420FEF7ED
:10299000C4FB40F206414FF48E70FEF7C0FB40F2DC
:1029A0006A41B820FEF7BDFBFEF772FB4FF45C7185
:1029B0008620FEF778FB4FF48761EA20FEF790FB54
:1029C00005B0BDE8F04FFEF7C9BB1F20D6E61F20BB
:1029D000F0E61F2018E7023EF30FAEE71F20B7E72F
:1029E00092930008999300089B930008A20400208A
:1029F000000000202DE9F041FEF718FDFEF734FE3F
:102A0000FEF730FD2120FEF73DFEFEF75FFD0020C2
:102A10000025FEF75BFE6F4C0020FEF73DFE2846CA
:102A20002570FEF739FE294628466B4DFEF73BFB25
:102A300040F2FF4140F28F10FEF752FBFEF78EFB93
:102A40002B78002B00F0A3800320FEF725FE634EB9
:102A500040F2B7211E20FEF726FB40F2C1214FF4C1
:102A6000B970FEF73DFBFEF779FB7278B378002A68
:102A700040F08F80002B40F098803379F278134338
:102A800040F0888040F295119220FEF7ECFA7378BE
:102A90002C2B03D198219220FEF7E5FA2B78002BFE
:102AA00000F08E801C20FEF7F7FDFEF79BFDFEF781
:102AB000CEFD4A48FEF724FE2B78002B00F08280E2
:102AC000FF20FEF7E9FD4FF4F571AE20FEF7CBFADB
:102AD000FEF760FDFEF7ADFD4148FEF711FE2B78D5
:102AE000002B71D0FC20FEF7D7FD4FF466719220C9
:102AF000FEF7B9FAFEF776FDFEF7A9FD3948FEF7B5
:102B0000FFFD2B78002B61D0FF20FEF7C5FD7C2157
:102B10002C20FEF7A8FAFEF749FDFEF78AFD3248A1
:102B2000FEF7EEFD2B78002B52D0FF20FEF7B4FD10
:102B30004FF43A712C20FEF796FAFEF737FDFEF7B8
:102B400078FD2A48FEF7DCFD2378B3B9322004F083
:102B5000D5F823788BB9322004F0D0F8237863B904
:102B6000322004F0CBF823783BB9322004F0C6F8C9
:102B7000237813B9322004F0C1F800231A4E1B4FFA
:102B800023702378002B00F03681BDE8F0811F20F0
:102B90005BE753B9F378002B7FF479AF3379002BDF
:102BA0007FF475AF4FF4A6716EE7F378002B7FF4D6
:102BB0006EAF3379002B7FF46AAF4FF4827163E715
:102BC0001F2070E71F207CE71F208CE71F209CE759
:102BD0001F20ABE7A204002000000020C407002053
:102BE0008B940008BC070020A2930008B093000853
:102BF0004FF001080020FEF74FFD5A212E20FEF76E
:102C000052FA4FF425719220FEF76AFAFEF7A6FAFF
:102C10002B78002B00F0F280FF20FEF73DFDE02135
:102C20002C20FEF720FAFEF7B5FCFEF702FD304639
:102C3000FEF766FD2378002BA7D1322004F05EF862
:102C400023788BB9322004F059F8237863B9322005
:102C500004F054F823783BB9322004F04FF823787D
:102C600013B9322004F04AF82B78002B00F0C8800A
:102C7000FF20FEF711FD7C212C20FEF7F4F9FEF772
:102C800095FCFEF7D6FC3046FEF73AFD2378002B84
:102C90007FF47BAF322004F031F823788BB93220F7
:102CA00004F02CF8237863B9322004F027F8237855
:102CB0003BB9322004F022F8237813B9322004F013
:102CC0001DF8B8F1010F93D12378002B7FF45DAF8D
:102CD0004FF002080020FEF7DFFC4FF434712E2085
:102CE000FEF7E1F940F2FF419220FEF7F9F9FEF715
:102CF00035FA2B78002B00F08880FF20FEF7CCFC03
:102D00004FF458712C20FEF7AEF9FEF743FCFEF7A6
:102D100090FC3846FEF7F4FC2378002B7FF435AFA7
:102D2000322003F0EBFF23788BB9322003F0E6FF6B
:102D3000237863B9322003F0E1FF23783BB93220D6
:102D400003F0DCFF237813B9322003F0D7FF2B7890
:102D5000002B5CD0FF20FEF79FFC4FF43A712C2033
:102D6000FEF781F9FEF722FCFEF763FC3846FEF71A
:102D7000C7FC2378002B7FF408AF322003F0BEFF9E
:102D800023788BB9322003F0B9FF237863B932205E
:102D900003F0B4FF23783BB9322003F0AFFF237870
:102DA00013B9322003F0AAFFB8F1010F2AD123781A
:102DB000002B7FF4EAAEC82003F0A0FF2378002B9D
:102DC0007FF4DFAEC82003F099FF2378002B7FF457
:102DD000D8AEC82003F092FF2378002B7FF4D1AE49
:102DE000C82003F08BFF2378002B7FF4CAAEC820E5
:102DF00003F084FFC5E64FF00208FBE61F200CE756
:102E00001F2036E74FF0010864E71F2076E71F20F8
:102E1000A1E700BF2DE9F8430020FEF73DFC0020AC
:102E2000FEF754FC002108463B4F0024FEF73BF917
:102E300040F2FF4140F28F10FEF752F9FEF78EF993
:102E40003C70FDF71DFF2046FEF726FC2046FEF7EE
:102E50003DFC2046FEF70BF8FDF768FFFDF704FF89
:102E6000FDF71AFF21462046FEF738F84FF4FA1016
:102E7000FEF749F84FF4C870FEF75BF8214620468C
:102E8000FEF763F8254B1B78002B38D040F2751104
:102E9000F720FEF76FF83B7853BBFDF7D8FE3E787E
:102EA00036BB322003F02AFFB04635465A2440F2A2
:102EB00066393B78E3B9A9B2A0B2FEF70FF83B78C8
:102EC000B3B9FEB90134A02C1EDC092CD8BF0026F2
:102ED000B8F1000F1AD101354D4519DC1D2DD8BFB1
:102EE0004FF00008022003F009FF3B78002BE0D0F0
:102EF000FDF728FFBDE8F8430948FDF7B8BFF0210A
:102F0000A020C6E7013CDEE70126E1E7013DE3E75B
:102F10004FF00108E6E700BFA204002000000020F7
:102F200000204E002DE9F0470024A8B04C22214695
:102F300001A8009405F0FBFA4C22214615A8149430
:102F400005F0F5FA2046FEF7A7FB2046FEF7BEFB8C
:102F500021462046FEF7A7F8854E40F2FF4140F299
:102F60008F10FEF7BDF8FEF7F9F8FEF75FFAFEF7EF
:102F70007BFBFEF777FA2120FEF784FB3378002BEA
:102F800000F0E780FF20FEF787FB7A4C0020FEF779
:102F90009DFBFEF782FAFEF78CFAE1217420FEF722
:102FA00062F8FEF711FBFEF752FB2046FEF7A8FB86
:102FB000002323703378002B00F0CD801C20FEF717
:102FC0006BFB0020FEF782FB5A213A20FEF76BF8DC
:102FD0004FF49B615C20FEF783F8FEF7BFF833786F
:102FE000002B00F0BA801C20FEF756FB0020FEF7F5
:102FF0006DFB5A214FF48F705F4CDFF88081FEF734
:1030000052F84FF49B614FF49F70FEF769F8FEF79A
:10301000A5F8FEF735FAFEF759FAFEF7BBFAFEF708
:10302000EEFA5523A3704223E37045234C226371CB
:1030300054232271A37122735023627341224F21C2
:10304000442000252372A273202352222070617035
:10305000E1716372A072E172E27323746374A3740A
:10306000E3742375657588F800500E270135152D1A
:1030700008BF002569462A4600238A46A05C01F85D
:10308000010B0132152A03F1010308BF0022262B90
:10309000F4D1013F781C08BF14273A460DF15009BE
:1030A000A15C03F80910013A511C08BF1422013B2E
:1030B000F6D23378002B52D01C20FEF7EDFA002018
:1030C000FEF704FB5A213A20FDF7EDFF4FF49B6118
:1030D0005C20FEF705F8FEF741F80020FEF7DCFA69
:1030E0003378002B3DD01C20FEF7F0FA5A213A200D
:1030F000FDF7B9FF5046FEF703FB33789BB31C2066
:10310000FEF7CAFA0020FEF7E1FA5A214FF4907058
:10311000FDF7C9FF4FF49B614FF49F70FDF7E0FF8F
:10312000FEF71CF85A214FF48F70FDF79CFF00202A
:10313000FEF7B2FA3378C3B11C20FEF7C7FA48464F
:10314000FEF7DEFA98F80030002B8FD028B0BDE8EB
:10315000F0871F2017E71F2031E71F2044E71F20BB
:10316000ABE71F20C0E71F20CAE71F20E5E700BF2D
:1031700000000020F4070020A3040020A204002087
:1031800008B50020FEF788FA00210846FDF78BFFFE
:1031900040F2FF414FF4C970FDF7A2FFFDF7DEFFDB
:1031A000FEF744F9FEF760FAFEF75CF92120FEF71E
:1031B00069FAFEF78BF90020FEF76EFAFC20FEF7A5
:1031C00085FA82208C21FDF74EFFFEF7FDF9FEF710
:1031D00030FABDE808400148FEF792BABC930008F7
:1031E0002DE9F0411D464FF4FA2303FB02F4064695
:1031F00020460F46DDF81880FEF70CF84FF4C87033
:10320000FEF71EF800210846FEF726F82046FEF7D6
:1032100038F84FF4C870FEF74AF800210846FEF768
:1032200052F81148FEF764F84FF4C870FEF776F8CC
:10323000B9B2B0B2FEF77EF8FDF7C8FFFDF7D2FFD6
:10324000FDF7DCFFA9B21FFA88F0FEF788F80C2022
:10325000FDF79EFF0220FDF7ABFFFDF78AFFBDE8FB
:10326000F041FDF793BF00BF00204E0007B50020DE
:10327000FEF712FA0020FEF729FA00210846FDF7B2
:1032800012FF40F2FF4140F28F10FDF729FFFDF7DA
:1032900065FF4FF4847302226421372000934FF4BA
:1032A000F073FFF79DFFFEF7C1F8FEF7DDF9FEF7BB
:1032B000CBF82120FEF7E6F9FEF778F9FEF7B9F929
:1032C00040F25E212C20FDF7CEFE124B1B78F3B1AD
:1032D000FF20FEF7E1F90020FEF7F8F90E48FEF7AF
:1032E0000FFA40F26E218C20FDF7BDFE0B48FEF771
:1032F00007FA4FF42371EA20FDF7B5FE0848FEF700
:10330000FFF9084B00221A7003B05DF804FB1F2080
:10331000DFE700BF00000020CF930008E69300081D
:10332000FB930008A204002007B50020FEF7B4F9C3
:103330000020FEF7CBF900210846FDF7B4FE40F26D
:10334000FF4140F28F10FDF7CBFEFDF707FF4FF472
:1033500084730222B421372000934FF4F073FFF7F7
:103360003FFFFDF78DFC3148FDF781FD4FF4C8703C
:10337000FDF793FD00210846FDF79BFD2B48FDF767
:103380000EFE4FF4C870FDF720FE00210846FDF741
:1033900028FE4FF4A0614FF4C870FDF737FE244BB0
:1033A0001B78002B40D0FF20FEF776F90020FEF7B7
:1033B0008DF9FEF749F82120FEF764F9FEF7F6F8DB
:1033C000FEF745F940F2A6212620FDF74CFE1948EC
:1033D000FEF796F94FF44D718220FDF744FE164832
:1033E000FEF78EF940F29921DC20FDF73CFE1348F0
:1033F000FEF786F9FEF71AF8FEF736F9FEF732F80F
:103400002120FEF73FF9FEF7EDF8FEF720F96C21D9
:103410007120FDF728FE0A48FEF772F9094B0022D9
:103420001A7003B05DF804FB1F20BDE700204E00BA
:10343000000000200E940008F4930008FB9300089D
:1034400022940008A204002013B50020FEF724F9FE
:103450000020FEF73BF900210846284CFDF723FE2B
:1034600040F2FF4140F28F10FDF73AFEFDF776FE85
:103470002378002B3AD0F723009340F275130322F0
:103480008C213E20FFF7ACFEFDF7D0FFFEF7ECF8F5
:10349000FDF7DAFF2120FEF7F5F8FEF787F8FEF7D3
:1034A000C8F84FF40B712C20FDF7DDFD23781BB31A
:1034B000FF20FEF7F1F80020FEF708F91048FEF7AC
:1034C0001FF94FF40F718C20FDF7CDFD0D48FEF76D
:1034D00017F940F25A21EA20FDF7C5FD0A48FEF728
:1034E0000FF90A4B00221A7002B010BD4FF4A073FE
:1034F00000934FF4F073C2E71F20DAE700000020CA
:10350000CF930008E6930008FB930008A204002074
:1035100013B50020FEF7C0F80020FEF7D7F8002111
:103520000846404CFDF7BFFD40F2FF4140F28F10CE
:10353000FDF7D6FDFDF712FE2378002B69D0F723A7
:10354000009340F275130322F0213E20FFF748FE5E
:10355000FDF796FB3448FDF78AFC4FF4C870FDF781
:103560009CFC00210846FDF7A4FC2F48FDF717FD41
:103570004FF4C870FDF729FD00210846FDF731FD25
:103580004FF4A0614FF4C870FDF740FD2378002B85
:1035900045D0FF20FEF780F80020FEF797F8FDF7F2
:1035A00053FF2120FEF76EF8FEF700F8FEF74FF804
:1035B00040F2A6212620FDF756FD1C48FEF7A0F894
:1035C0004FF44D718220FDF74EFD1948FEF798F833
:1035D00040F28F21DC20FDF746FD1648FEF790F8FB
:1035E000FDF724FFFEF740F8FDF73CFF2120FEF732
:1035F00049F8FDF7F7FFFEF72AF880217120FDF763
:1036000032FD0D48FEF77CF80C4B00221A7002B018
:1036100010BD4FF4A07300934FF4F07393E71F2095
:10362000B8E700BF0000002000204E000E94000804
:10363000F4930008FB93000822940008A2040020E1
:1036400008B504F031FE062390FBF3F202FB1300F1
:10365000C0B2024B13F8200008BD00BF04000020D8
:103660002DE9F04FAC4E35460FCD9DB004AC0FC4E4
:103670000FCD0FC495E80F0006F1300584E80F0068
:103680000FCD10AC0FC40FCD0FC495E80F0084E828
:103690000F00716E306EA14D01AB03C3B06E1860A8
:1036A000FDF7C4FEFDF7E0FFFDF7DCFE2120FDF78E
:1036B000E9FF9B4B00221A70994CB7E13046FDF7A9
:1036C000EBFF3046FEF702F831463046FDF7EBFCE3
:1036D00040F2FF4140F28F10FDF702FDFDF73EFD85
:1036E000DFF840B20DF1040A0DF110090DF14008A8
:1036F000FFF7A6FF59F8041B074658F8040B89B2D8
:1037000080B2FDF7B0FC287858B13846FDF7C4FF09
:103710001AF8017B3B09032B09D8DFE803F00610F8
:103720001316102F28BF1F20F0E7FDF733FF07F017
:103730000F07032F0ED8DFE807F00B4C4F52FDF7B1
:1037400035FFF4E7FDF740FFF1E7FDF74BFFEEE74C
:10375000FDF755FF58460136FDF7D2FF0C2EC7D1B5
:10376000FDF740FFFDF773FF4FF6EC760020FDF705
:1037700093FF0020FDF7AAFF4FF402710020FDF730
:1037800092FC40F25231B420FDF7AAFCFDF7E6FCB2
:103790000DF104090DF1100A0DF1400B4FF0000876
:1037A000FFF74EFF5AF8041B07465BF8040B89B27B
:1037B00080B2FDF758FC2878A0B13846FDF76CFFC1
:1037C00019F8017B3B09032B12D8DFE803F00F192E
:1037D0001C1FFDF720FFBDE7FDF72BFFBAE7FDF744
:1037E00036FFB7E7102F28BF1F20E7E7FDF7D2FE0F
:1037F00007F00F07032F0ED8DFE807F00B6B6E7191
:10380000FDF7D4FEF4E7FDF7DFFEF1E7FDF7EAFE92
:10381000EEE7FDF7F4FE434808F10108FDF770FFFD
:10382000B8F10C0FBCD1FDF7DDFEFDF710FF2B78D2
:10383000002B57D0FF20FDF72FFF40F20321304629
:10384000FDF711FC3848FDF75BFF2378002B40F0B3
:10385000F18002360A20B6B203F050FA282E85D144
:103860002378002B40F0E6804FF4B9760020FDF776
:1038700013FF0020FDF72AFFDC21C820FDF713FC11
:1038800040F224414FF4C870FDF72AFCFDF766FCB6
:103890000DF1040B0DF1100A0DF140094FF0000875
:1038A000FFF7CEFE5AF8041B074659F8040B89B2FD
:1038B00080B2FDF7D8FB2878B0B13846FDF7ECFEB2
:1038C0001BF8017B3B09032B14D8DFE803F0111B25
:1038D0001E21FDF7A0FE9EE7FDF7ABFE9BE7FDF77F
:1038E000B6FE98E71F20A6E7102F28BF1F20E5E7A8
:1038F000FDF750FE07F00F07032F19D8DFE807F098
:1039000016616467FDF752FEF4E7FDF75DFEF1E72F
:10391000FDF768FEEEE700BFA89200080000002057
:10392000A20400202494000844940008FDF767FED8
:10393000464808F10108FDF7E3FEB8F10C0FAFD1DE
:103940002B78002B46D0FF20FDF7A6FEFDF74AFEA0
:10395000FDF77DFEE6213046FDF785FB3C48FDF78F
:10396000CFFE2378002B65D10A3E1420B6B203F0B7
:10397000C5F9AA2E7FF47AAF2378002B5AD16E278F
:103980000DF104090DF1100A0DF1400B4FF0000884
:10399000FFF756FE5AF8041B06465BF8040B89B283
:1039A00080B2FDF760FB2878B0B13046FDF774FEB9
:1039B00019F8016B3309032B14D8DFE803F0111B4E
:1039C0001E21FDF728FEB3E7FDF733FEB0E7FDF754
:1039D0003EFEADE71F20B7E7102E28BF1F20E5E70A
:1039E000FDF7D8FD06F00F06032E0ED8DFE806F02F
:1039F0000B25282BFDF7DAFDF4E7FDF7E5FDF1E7F0
:103A0000FDF7F0FDEEE7FDF7FAFD104808F10108BB
:103A1000FDF776FEB8F10C0FBAD1142003F06EF961
:103A2000013F3FF449AE2378002BA9D02678002E21
:103A30003FF444AE1DB0BDE8F08FFDF7ECFDE4E7C8
:103A4000FDF7F7FDE1E7FDF702FEDEE7249400084D
:103A5000D19400082DE9F84303F04AF904F0F6FB8D
:103A60000020FDF719FE0020FDF730FE002108467A
:103A7000A04DFDF718FB40F2FF4140F28F10FDF71B
:103A80002FFBFDF76BFB2B78002B00F02881E0204B
:103A9000FDF702FE0020FDF719FE974C974EDFF868
:103AA0006082FDF7C3FCFDF7DFFDFDF7DBFC2120A5
:103AB000FDF7E8FDFDF70AFD00232370FFF7C0FDC9
:103AC0002B780746002B00F00C81FDF7E5FDED217A
:103AD0007020FDF7C8FAFDF785FDFDF7B8FD30460B
:103AE000FDF70EFE4FF422717020FDF7BCFAFDF7D2
:103AF00079FDFDF7ACFD4046FDF702FE2378002B73
:103B000040F0EB807D2003F0F9F82378002B40F0A3
:103B1000E4807D2003F0F2F82378002B40F0DD8074
:103B20007D2003F0EBF894F80090B9F1000F40F01D
:103B3000D4807D2003F0E2F84846FDF7ADFDED218D
:103B40007020FDF790FAFDF74DFDFDF780FD304642
:103B5000FDF7D6FD2B78002B00F0C5803846FDF729
:103B60009BFDED218C20FDF77EFAFDF73BFDFDF777
:103B700060FD3046FDF7C4FD2378002B40F0AD809A
:103B8000192003F0BBF82378002B40F0A680192001
:103B900003F0B4F82378002B40F09F80192003F045
:103BA000ADF894F80090B9F1000F40F0968019201C
:103BB00003F0A4F84846FDF76FFDEB218C20FDF7DC
:103BC00052FAFDF70FFDFDF734FD3046FDF798FD85
:103BD0002B78002B00F089803846FDF75DFDED2144
:103BE0007020FDF740FAFDF7FDFCFDF730FD304693
:103BF000FDF786FD2378002B6FD1192003F07EF8A6
:103C00002378002B69D1192003F078F82378002B52
:103C100063D1192003F072F894F80090B9F1000F05
:103C20005BD1192003F06AF84FF422717020FDF780
:103C30001AFA4846FDF730FDFDF7D4FCFDF707FD05
:103C40004046FDF75DFD2B78002B50D03846FDF740
:103C500023FD4FF422718C20FDF705FAFDF7C2FC1D
:103C6000FDF7E7FC4046FDF74BFD2378ABBB192081
:103C700003F044F8237883BB192003F03FF823783E
:103C80005BBB192003F03AF8237833BB192003F00B
:103C900035F84FF422717020FDF7E5F9FDF7A2FC2D
:103CA000FDF7D5FC4046FDF72BFD2378ABB97D2011
:103CB00003F024F8237883B97D2003F01FF82378DC
:103CC0005BB97D2003F01AF8237833B97D2003F027
:103CD00015F82378002B3FF4F1AEBDE8F8831F20E0
:103CE000D6E61F20F1E61F2039E71F2075E71F20C9
:103CF000ADE700BF00000020A204002026940008C9
:103D0000AA9300082DE9F8430020FDF7C5FC002028
:103D1000FDF7DCFC00210846A04DFDF7C4F940F298
:103D2000FF4140F28F10FDF7DBF9FDF717FA2B7812
:103D3000002B00F02881FF20FDF7AEFC0020FDF7EE
:103D4000C5FC974C974EDFF86082FDF76FFBFDF7DF
:103D50008BFCFDF787FB2120FDF794FCFDF7B6FBFC
:103D600000232370FFF76CFC2B780746002B00F034
:103D70000C81FDF791FC94217020FDF774F9FDF79B
:103D800031FCFDF764FC3046FDF7BAFC4FF43671A8
:103D90007020FDF768F9FDF725FCFDF758FC40465B
:103DA000FDF7AEFC2378002B40F0EB807D2002F085
:103DB000A5FF2378002B40F0E4807D2002F09EFFD9
:103DC0002378002B40F0DD807D2002F097FF94F8EF
:103DD0000090B9F1000F40F0D4807D2002F08EFFFA
:103DE0004846FDF759FC94217020FDF73CF9FDF79A
:103DF000F9FBFDF72CFC3046FDF782FC2B78002BFD
:103E000000F0C5803846FDF747FC94218C20FDF773
:103E10002AF9FDF7E7FBFDF70CFC3046FDF770FCD7
:103E20002378002B40F0AD80192002F067FF237843
:103E3000002B40F0A680192002F060FF2378002BB1
:103E400040F09F80192002F059FF94F80090B9F1DA
:103E5000000F40F09680192002F050FF4846FDF711
:103E60001BFCAC218C20FDF7FEF8FDF7BBFBFDF73A
:103E7000E0FB3046FDF744FC2B78002B00F08980F6
:103E80003846FDF709FC94217020FDF7ECF8FDF7AA
:103E9000A9FBFDF7DCFB3046FDF732FC2378002B55
:103EA0006FD1192002F02AFF2378002B69D1192045
:103EB00002F024FF2378002B63D1192002F01EFFAB
:103EC00094F80090B9F1000F5BD1192002F016FFB1
:103ED0004FF436717020FDF7C6F84846FDF7DCFB5D
:103EE000FDF780FBFDF7B3FB4046FDF709FC2B789F
:103EF000002B50D03846FDF7CFFB4FF436718C20A5
:103F0000FDF7B1F8FDF76EFBFDF793FB4046FDF7BB
:103F1000F7FB2378ABBB192002F0F0FE237883BBBC
:103F2000192002F0EBFE23785BBB192002F0E6FEBD
:103F3000237833BB192002F0E1FE4FF43671702074
:103F4000FDF791F8FDF74EFBFDF781FB4046FDF7CD
:103F5000D7FB2378ABB97D2002F0D0FE237883B95C
:103F60007D2002F0CBFE23785BB97D2002F0C6FEF7
:103F7000237833B97D2002F0C1FE2378002B3FF473
:103F8000F1AEBDE8F8831F20D6E61F20F1E61F2022
:103F900039E71F2075E71F20ADE700BF00000020B4
:103FA000A20400202C940008AA9300082DE9F843ED
:103FB0000020FDF771FB0020FDF788FB002108467B
:103FC000A04DFDF770F840F2FF4140F28F10FDF771
:103FD00087F8FDF7C3F82B78002B00F02881FF202D
:103FE000FDF75AFB0020FDF771FB974C974EDFF869
:103FF0006082FDF71BFAFDF737FBFDF733FA21204E
:10400000FDF740FBFDF762FA00232370FFF718FB72
:104010002B780746002B00F00C81FDF73DFBE121DA
:104020007020FDF720F8FDF7DDFAFDF710FB3046B4
:10403000FDF766FB4FF424717020FDF714F8FDF7CF
:10404000D1FAFDF704FB4046FDF75AFB2378002B1D
:1040500040F0EB807D2002F051FE2378002B40F0F1
:10406000E4807D2002F04AFE2378002B40F0DD80C2
:104070007D2002F043FE94F80090B9F1000F40F06B
:10408000D4807D2002F03AFE4846FDF705FBE12191
:104090007020FCF7E8FFFDF7A5FAFDF7D8FA3046E7
:1040A000FDF72EFB2B78002B00F0C5803846FDF77E
:1040B000F3FAE1218C20FCF7D6FFFDF793FAFDF728
:1040C000B8FA3046FDF71CFB2378002B40F0AD809A
:1040D000192002F013FE2378002B40F0A68019204F
:1040E00002F00CFE2378002B40F09F80192002F094
:1040F00005FE94F80090B9F1000F40F09680192069
:1041000002F0FCFD4846FDF7C7FAE1218C20FCF7E0
:10411000AAFFFDF767FAFDF78CFA3046FDF7F0FAD3
:104120002B78002B00F089803846FDF7B5FAE121A5
:104130007020FCF798FFFDF755FAFDF788FA304636
:10414000FDF7DEFA2378002B6FD1192002F0D6FD9F
:104150002378002B69D1192002F0D0FD2378002BA1
:1041600063D1192002F0CAFD94F80090B9F1000F54
:104170005BD1192002F0C2FD4FF424717020FCF7CE
:1041800072FF4846FDF788FAFDF72CFAFDF75FFA53
:104190004046FDF7B5FA2B78002B50D03846FDF796
:1041A0007BFA4FF424718C20FCF75DFFFDF71AFABF
:1041B000FDF73FFA4046FDF7A3FA2378ABBB192081
:1041C00002F09CFD237883BB192002F097FD237831
:1041D0005BBB192002F092FD237833BB192002F05B
:1041E0008DFD4FF424717020FCF73DFFFDF7FAF9C7
:1041F000FDF72DFA4046FDF783FA2378ABB97D2011
:1042000002F07CFD237883B97D2002F077FD2378CE
:104210005BB97D2002F072FD237833B97D2002F076
:104220006DFD2378002B3FF4F1AEBDE8F8831F202D
:10423000D6E61F20F1E61F2039E71F2075E71F2073
:10424000ADE700BF00000020A20400203394000866
:10425000AA9300082DE9F8430020FDF71DFA00207D
:10426000FDF734FA00210846A04DFCF71CFF40F290
:10427000FF4140F28F10FCF733FFFCF76FFF2B7804
:10428000002B00F02881FF20FDF706FA0020FDF743
:104290001DFA974C974EDFF86082FDF7C7F8FDF7DF
:1042A000E3F9FDF7DFF82120FDF7ECF9FDF70EF952
:1042B00000232370FFF7C4F92B780746002B00F08A
:1042C0000C81FDF7E9F9E1217020FCF7CCFEFDF748
:1042D00089F9FDF7BCF93046FDF712FA4FF4247165
:1042E0007020FCF7C0FEFDF77DF9FDF7B0F9404600
:1042F000FDF706FA2378002B40F0EB807D2002F0DA
:10430000FDFC2378002B40F0E4807D2002F0F6FCD9
:104310002378002B40F0DD807D2002F0EFFC94F844
:104320000090B9F1000F40F0D4807D2002F0E6FC4F
:104330004846FDF7B1F9E1217020FCF794FEFDF746
:1043400051F9FDF784F93046FDF7DAF92B78002BA7
:1043500000F0C5803846FDF79FF9E1218C20FCF77D
:1043600082FEFDF73FF9FDF764F93046FDF7C8F925
:104370002378002B40F0AD80192002F0BFFC237899
:10438000002B40F0A680192002F0B8FC2378002B07
:1043900040F09F80192002F0B1FC94F80090B9F130
:1043A000000F40F09680192002F0A8FC4846FDF767
:1043B00073F9E1218C20FCF756FEFDF713F9FDF7A8
:1043C00038F93046FDF79CF92B78002B00F08980F6
:1043D0003846FDF761F9E1217020FCF744FEFDF756
:1043E00001F9FDF734F93046FDF78AF92378002BFF
:1043F0006FD1192002F082FC2378002B69D119209B
:1044000002F07CFC2378002B63D1192002F076FCAB
:1044100094F80090B9F1000F5BD1192002F06EFC06
:104420004FF424717020FCF71EFE4846FDF734F966
:10443000FDF7D8F8FDF70BF94046FDF761F92B7849
:10444000002B50D03846FDF727F94FF424718C200B
:10445000FCF709FEFDF7C6F8FDF7EBF84046FDF75F
:104460004FF92378ABBB192002F048FC237883BBBB
:10447000192002F043FC23785BBB192002F03EFCBC
:10448000237833BB192002F039FC4FF424717020DB
:10449000FCF7E9FDFDF7A6F8FDF7D9F84046FDF772
:1044A0002FF92378ABB97D2002F028FC237883B95B
:1044B0007D2002F023FC23785BB97D2002F01EFCF6
:1044C000237833B97D2002F019FC2378002B3FF4C8
:1044D000F1AEBDE8F8831F20D6E61F20F1E61F20CD
:1044E00039E71F2075E71F20ADE700BF000000205F
:1044F000A204002039940008AA930008F8B502F03D
:10450000F7FB03F0A3FE0020FDF7C6F80020FDF73F
:10451000DDF800210846FCF7C6FD40F2FF4140F2FD
:104520008F10FCF7DDFDFCF719FEFCF77FFFFDF7B0
:104530009BF8FCF797FF2120FDF7A4F8FF20FDF77B
:10454000ABF87B4E7B4F0020FDF7C0F8FCF7B1FFC6
:10455000FDF73AF8FDF77BF8002333703B78002B2A
:1045600000F0D980FFF76CF8C4B22046FDF7AEF832
:104570002046FDF791F800210846FCF794FD4FF422
:1045800020714FF4C870FCF7ABFDFCF7E7FD00208D
:10459000FDF79CF80020FDF77FF840F28121002014
:1045A000FCF781FD40F2FF4140F28F10FCF798FDCF
:1045B000FCF7D4FD0020FDF76FF860213220FCF7F6
:1045C00052FD5D48FDF79CF8EC21B420FCF74BFD53
:1045D0005A48FDF795F83B78002B00F09E80204666
:1045E000FDF75AF84FF436713220FCF73CFD544881
:1045F000FDF786F840F20531B420FCF734FD514850
:10460000FDF77EF83378002B40F084807D2002F0A7
:1046100075FB3378002B7DD17D2002F06FFB337862
:10462000002B77D17D2002F069FB3578002D71D108
:104630007D2002F063FB2846FDF72EF82846FDF7A3
:1046400045F829462846FCF72EFD4FF420714FF41B
:10465000C870FCF745FDFCF781FD3B78002B5ED070
:104660002046FDF719F83B78002B5AD02046FDF77D
:104670002DF840F281210020FCF715FD40F2FF41AA
:1046800040F28F10FCF72CFDFCF768FD3B78002B07
:1046900049D02046FDF700F860213220FCF7E3FC0A
:1046A0002548FDF72DF8EC21B420FCF7DCFC23486D
:1046B000FDF726F80020FCF7EFFF3B78ABB3FF20B7
:1046C000FDF704F84FF436713220FCF7CCFC1C489F
:1046D000FDF716F840F20531B420FCF7C4FC194888
:1046E000FDF70EF83378ABB97D2002F007FB337885
:1046F00083B97D2002F002FB33785BB97D2002F0A4
:10470000FDFA337833B97D2002F0F8FA3378002BC4
:104710003FF424AFF8BD1F2026E71F2060E71F20CD
:104720009FE71F20A3E71F20B4E71F20C8E700BFB3
:10473000A2040020000000203F94000849940008D3
:104740004E940008549400082DE9F04102F0D0FA8C
:1047500003F07CFD0020FCF79FFF0020FCF7B6FF74
:1047600000210846FCF79FFC874D40F2FF4140F2D4
:104770008F10FCF7B5FCFCF7F1FCFCF757FEFCF7DB
:1047800073FFFCF76FFE2120FCF77CFF2B78002BDA
:1047900000F0EC80FF20FCF77FFF7C4CDFF8FC8111
:1047A0000020FCF793FFFCF784FEFCF70DFFFCF7FD
:1047B0004EFF00232370FEF743FF2B780646002BA5
:1047C00000F0D680FCF768FF2B78002B00F0D28039
:1047D0003046FCF77BFF00210846FCF764FC4FF4F1
:1047E00020714FF4C870FCF77BFCFCF7B7FC00208D
:1047F000FCF752FF0020FCF769FF40F28121002006
:10480000FCF751FC40F2FF4140F28F10FCF768FCCE
:10481000FCF7A4FC0020FCF73FFF60213220FCF7EE
:1048200022FC4046FCF76CFFEC21B420FCF71BFC9B
:104830005748FCF765FF2B78002B00F09D80304631
:10484000FCF72AFF40F2E6213220FCF70CFC51482D
:10485000FCF756FF40F21931B420FCF704FC4E4837
:10486000FCF74EFF2378002B7ED17D2002F046FA24
:104870002378002B78D17D2002F040FA2378002B9A
:1048800072D17D2002F03AFA2778002F6CD17D207A
:1048900002F034FA3846FCF7FFFE3846FCF716FF04
:1048A00039463846FCF7FFFB4FF420714FF4C870CF
:1048B000FCF716FCFCF752FC2B78002B5ED0304640
:1048C000FCF7EAFE2B78002B5AD03046FCF7FEFEB0
:1048D00040F281210020FCF7E6FB40F2FF4140F26C
:1048E0008F10FCF7FDFBFCF739FC2B78002B49D02F
:1048F0003046FCF7D1FE60213220FCF7B4FB404685
:10490000FCF7FEFEEC21B420FCF7ADFB2048FCF7E1
:10491000F7FE0020FCF7C0FE40F2E6213220FCF753
:10492000A2FB1C48FCF7ECFE40F21931B420FCF766
:104930009AFB1948FCF7E4FE2378ABB97D2002F01E
:10494000DDF9237883B97D2002F0D8F923785BB9AB
:104950007D2002F0D3F9237833B97D2002F0CEF91F
:104960002378002B3FF427AFBDE8F0811F2012E72A
:104970001F2027E71F202CE71F2061E71F209FE74C
:104980001F20A3E71F20B4E700000020A20400209E
:10499000499400085B940008609400083F94000864
:1049A0002DE9F0470020FCF777FE0020FCF78EFE93
:1049B00000210846FCF777FB644E40F2FF4140F2CD
:1049C0008F10FCF78DFBFCF7C9FBFCF72FFDFCF704
:1049D0004BFEFCF747FD2120FCF754FE3378002BFB
:1049E00064D0FF20FCF758FE0020FCF76FFEFCF7B8
:1049F0006DFDFCF7E9FDFCF71CFE3378002B57D06A
:104A00000320FCF749FE4FF413718220FCF72BFBC7
:104A10004F48504C504FDFF84C81FCF771FEFCF7CB
:104A2000E1FDFCF714FE1F20FCF736FE4FF4557134
:104A30002820FCF718FB4948FCF762FE40F20631DB
:104A4000AE20FCF710FB00254548FCF759FE257009
:104A50000020FCF721FE9C212820FCF704FB3846AF
:104A6000FCF74EFE7421AE20FCF7FDFA4046FCF741
:104A700047FEFEF7E5FD3378E3B1FCF70DFEFCF7EA
:104A8000D8FD9C214720FCF7EEFA3846FCF738FEAB
:104A90007421B620FCF7E7FA4046FCF731FE237894
:104AA00053B13378002B5FD11F205EE01F2099E7C0
:104AB0001F20A6E71F20E0E73E2002F01FF9237821
:104AC000002BEED13E2002F019F92378002BE8D11B
:104AD0003E2002F013F92378002BE2D13E2002F0B1
:104AE0000DF9337883B3FEF7ABFDC0B2FCF7D4FD0C
:104AF000FCF7ADFD9C212820FCF7B5FA3846FCF701
:104B0000FFFD7421AE20FCF7AEFA4046FCF7F8FD3D
:104B10002378002BC5D13E2002F0F0F82378002B3B
:104B2000BFD13E2002F0EAF82378002BB9D13E2015
:104B300002F0E4F82378002BB3D13E2002F0DEF837
:104B4000002DAED1012583E71F20CEE70000002015
:104B500067940008A20400204F9400085C940008A9
:104B60006A940008AA930008FF20FCF795FD002036
:104B7000FCF7ACFDFCF76BFD9C212820FCF773FAD9
:104B80003846FCF7BDFD7421AE20FCF76CFA4046B8
:104B9000FCF7B6FD2378002B40F0C5807D2002F0A5
:104BA000ADF82378002B40F0BE807D2002F0A6F8FF
:104BB0002378002B40F0B7807D2002F09FF8237807
:104BC000002B40F0B0807D2002F098F85B4DDFF8BC
:104BD00070914FF0020A0020FCF75EFD4FF4557112
:104BE0002820FCF740FA2846FCF78AFD40F20631FF
:104BF000AE20FCF738FA4846FCF782FDFEF720FDB0
:104C00003378002B00F09480FCF746FDFCF711FD93
:104C10004FF455714720FCF726FA2846FCF770FD43
:104C200040F20631B620FCF71EFA4846FCF768FD54
:104C30002378002B42D13E2002F060F82378002B2D
:104C40003CD13E2002F05AF82378BBBB3E2002F054
:104C500055F8237893BB3E2002F050F8FEF7F0FCA5
:104C60003378002B66D0FCF717FDFCF7F0FC4FF40F
:104C700055712820FCF7F7F92846FCF741FD40F272
:104C80000631AE20FCF7EFF94846FCF739FD2378F2
:104C9000A3B93E2002F032F823787BB93E2002F01F
:104CA0002DF8237853B93E2002F028F823782BB949
:104CB0003E2002F023F8BAF1010F36D13378002BF1
:104CC0003AD0FF20FCF7E8FC0020FCF7FFFCFCF7E3
:104CD00089FCFCF7BCFC4FF455712820FCF7C3F9A4
:104CE0001648FCF70DFD40F20631AE20FCF7BBF98B
:104CF0001348FCF705FD2378ABB97D2001F0FEFFDA
:104D0000237883B97D2001F0F9FF23785BB97D20FA
:104D100001F0F4FF237833B97D2001F0EFFF25780F
:104D2000002D3FF495AEBDE8F0874FF0010A52E741
:104D30001F2069E71F2096E71F20C3E75C94000847
:104D40006A9400082DE9F74F00249E4D9E4E2C706A
:104D50002046FCF7A1FC2046FCF7B8FC2146204683
:104D6000FCF7A1F940F2FF4140F28F10FCF7B8F9CF
:104D7000FCF7F4F9FCF75AFBFCF776FCFCF764FB54
:104D80002120FCF77FFC3378002B7DD0FF20FCF73F
:104D900083FC0020FCF79AFCFCF78BFBFCF714FC6F
:104DA000FCF755FC3378002B70D0FF20FCF774FC27
:104DB0000020FCF78BFC4FF495712D20FCF753F984
:104DC0008248834CFCF79CFC9A21D220FCF74BF9DB
:104DD000FCF7FAFBFCF72DFC7E48FCF791FC6278AF
:104DE000A378002A54D1002B5CD12379E2781343B5
:104DF0004FD14FF41D71BE20FCF735F963782C2B91
:104E000004D140F21221BE20FCF72DF93378002B9B
:104E100051D01C20FCF740FCFCF7E4FBFCF717FC2E
:104E20006B48FCF76DFC3378002B46D0FF20FCF775
:104E300033FC40F22531D220FCF715F9FCF7C4FB16
:104E4000FCF7F7FB6448FCF75BFC2B78CBB97D20C3
:104E500001F054FF2B78A3B97D2001F04FFF2B7890
:104E60007BB97D2001F04AFF2B7853B97D2001F0FA
:104E700045FFDFF85881DFF85C91DFF854A12B780B
:104E8000EBB103B0BDE8F08F1F2080E71F208DE756
:104E900043B9E378002BB1D12379002BAED140F296
:104EA0005621A8E7E378002BA8D12379002BA5D1C0
:104EB0004FF410719FE71F20ACE71F20B7E74FF0BA
:104EC000030B3378002B68D0FEF7BAFBC7B2384625
:104ED000FCF7E2FB00210846FCF7E5F840F2FF4151
:104EE00040F28F10FCF7FCF8FCF738F90020FCF7D3
:104EF000D3FBFCF769FBFCF7AAFB4FF495712D205F
:104F0000FCF7B1F84046FCF7FBFB9A21D220FCF7F6
:104F1000AAF8FCF759FBFCF78CFB4846FCF7F0FBC2
:104F20006278A378002A3AD1002B42D12379E27823
:104F3000134335D14FF41D71BE20FCF794F863780C
:104F40002C2B04D140F21221BE20FCF78CF8FCF788
:104F500049FBFCF77CFB5046FCF7D2FB2B78002B7F
:104F60003CD00020FCF798FB0020FCF7AFFB0021B1
:104F70000846FCF798F840F2FF4140F28F10FCF72A
:104F8000AFF8FCF7EBF8FCF71FFBFCF760FB33789E
:104F9000002B40F0AA801F20A8E01F2096E743B90D
:104FA000E378002BCBD12379002BC8D140F25621D6
:104FB000C2E7E378002BC2D12379002BBFD14FF495
:104FC0001071B9E7A20400200000002070940008CE
:104FD000C4070020819400088A94000840F225311B
:104FE000D220FCF740F8FCF7EFFAFCF722FB8048F0
:104FF000FCF786FB2B780193002BB2D1642001F0E3
:105000007DFE019B1846FCF761FB3378002B57D0DF
:105010003846FCF741FB00210846FCF744F840F213
:10502000FF4140F28F10FCF75BF8FCF797F8FCF7B4
:10503000CBFAFCF70CFB4FF495712D20FCF713F81D
:105040004046FCF75DFBFCF7BFFAFCF7F2FA9A2149
:10505000D220FCF708F84846FCF752FB6278A378A8
:1050600082BB002B38D12379E27813432BD14FF444
:105070001D71BE20FBF7F7FF63782C2B04D140F2A3
:105080001221BE20FBF7EFFFFCF7ACFAFCF7DFFACA
:105090005046FCF735FB40F22531D220FBF7E3FF09
:1050A000FCF792FAFCF7C5FA5148FCF729FB2B787C
:1050B000002B7FF456AFBBF1010B7FF402AF50E73A
:1050C0001F20A6E743B9E378002BD5D12379002B25
:1050D000D2D140F25621CCE7E378002BCCD1237912
:1050E000002BC9D14FF41071C3E7FF20FCF7D4FAAD
:1050F0000020FCF7EBFA4FF495712D20FBF7B3FF7E
:105100004046FCF7FDFA9A21D220FBF7ACFFFCF7F2
:105110005BFAFCF78EFA4846FCF7F2FA6278A3785D
:10512000002A4ED1002B56D12379E278134349D17E
:105130004FF41D71BE20FBF796FF63782C2B04D132
:1051400040F21221BE20FBF78EFF3378002B4BD0AC
:105150001C20FCF7A1FAFCF745FAFCF778FA504658
:10516000FCF7CEFA3378002B40D0FF20FCF794FAFE
:1051700040F22531D220FBF776FFFCF725FAFCF749
:1051800058FA1B48FCF7BCFA2B78002B7FF479AE59
:105190007D2001F0B3FD2B78002B7FF472AE7D20D3
:1051A00001F0ACFD2B78002B7FF46BAE7D2001F07D
:1051B000A5FD2B78002B7FF464AE7D2001F09EFDD1
:1051C0005DE643B9E378002BB7D12379002BB4D146
:1051D00040F25621AEE7E378002BAED12379002BC5
:1051E000ABD14FF41071A5E71F20B2E71F20BDE738
:1051F0008A9400082DE9F047824C00232370824BEB
:1052000059789878DA7861B9002840F08A8118795D
:10521000104300F0EA8052B14FF41B7640F20625AD
:1052200016E0002840F0CF80002A40F0D9801B799A
:10523000002B40F2062512BF4FF41B764FF4FF7689
:105240004FF4B9752C2904BF4FF411764FF49B75B8
:105250000020FCF721FA0020FCF738FA002108466C
:10526000FBF721FF694F40F2FF4140F28F10FBF73F
:1052700037FFFBF773FFFCF7D9F8FCF7F5F9FCF7FC
:10528000E3F82120FCF7FEF93B78002B00F0B28018
:10529000FF20FCF701FA0020FCF718FA3B78002BFE
:1052A00000F0AA80FF20FCF7F7F9FCF79BF9FCF768
:1052B000CEF9BE214120FBF7D6FE5548FCF720FA77
:1052C000FCF790F9FCF7C3F93B78002B00F09680CF
:1052D000FF20FCF7E1F9A9B2BE20FBF7C4FE4A4863
:1052E000FCF70EFA3B78002B00F08A80FF20B6B264
:1052F000FCF7D2F9FCF776F9FCF7A9F93146C020A2
:10530000FBF7B1FE4348FCF7FBF9FCF76BF9FCF740
:105310009EF92378002B54D1192001F0EFFC23785B
:10532000002B4ED1192001F0E9FC2378002B48D145
:10533000192001F0E3FC2378002B42D1192001F061
:10534000DDFC2378002B3CD1192001F0D7FC237819
:10535000002B36D1192001F0D1FC23788BBB19200A
:1053600001F0CCFC237863BB192001F0C7FC237843
:105370003BBB192001F0C2FC237813BB192001F0BC
:10538000BDFC2378EBB9192001F0B8FC2378C3B930
:10539000192001F0B3FC23789BB9192001F0AEFC71
:1053A000237873B9192001F0A9FC23784BB919208F
:1053B00001F0A4FCDFF85890DFF858A0114D2378D5
:1053C00053B3BDE8F0875AB91B79002B40F212267F
:1053D00040F2062514BF4FF41B764FF4AA7531E74F
:1053E0004FF41B7640F206252CE74FF4F5764FF488
:1053F000C3752DE71F204CE71F2054E71F2068E7E7
:105400001F2074E7A2040020C40700200000002031
:10541000939400088B9400083B78002B7ED0FEF715
:105420000FF91FFA80F8FCF7DDF8FCF710F95FFAC6
:1054300088F0FCF731F9BE214120FBF714FE484605
:10544000FCF75EF93146C020FBF70DFEFCF7CAF809
:10545000FCF7FDF85046FCF753F92378002BB0D148
:10546000192001F04BFC2378002BAAD1192001F060
:1054700045FC2378002BA4D1192001F03FFC2378B0
:10548000002B9ED1192001F039FC2378002B98D1F4
:10549000192001F033FC2378002B92D1192001F060
:1054A0002DFC2378002B8CD1192001F027FC2378C8
:1054B000002B86D1192001F021FC2378002B80D10C
:1054C000192001F01BFC2378002B7FF47AAF192000
:1054D00001F014FC2B78002B7FF473AF192001F03E
:1054E0000DFC2B78002B7FF46CAF192001F006FC2B
:1054F0002B78002B7FF465AF192001F0FFFB2B7890
:10550000002B7FF45EAF192001F0F8FB2B78002B05
:105510007FF457AF192001F0F1FB50E74FF01F085F
:1055200081E7002A3FF450AF76E600BF2DE9F0474F
:105530000025A34C28462570FCF7AEF82846FCF75A
:10554000C5F829462846FBF7AEFD9E4D40F2FF41C7
:1055500040F28F10FBF7C4FDFBF700FEFBF766FF80
:10556000FCF782F8FBF770FF2120FCF78BF82B7813
:10557000002B00F0FD80FF20FCF78EF80020FCF7E8
:10558000A5F82B78002B00F0F580FF20FCF784F8BD
:10559000FCF728F8FCF75BF8BE214120FBF763FD20
:1055A0008948FCF7ADF8FCF71DF8FCF750F8874A7E
:1055B00051789378002940F0DF80002B40F0DF80A5
:1055C000D17813790B4351790B4381498878034390
:1055D000C87803430879497903430B4300F0D78027
:1055E000DFF8EC8192F803E0167992F805C098F89C
:1055F000030098F8041098F8057098F802804EEAB5
:1056000006034CEA030343EA080303430B433B430B
:1056100000F0C280BEF1000F40F0B58046EA0C06F3
:1056200030430143394300F0BC8053791179684A13
:1056300019431079D3780343507903430B4300F0A7
:10564000B480002940F09F8053782C2B40F27E36A6
:105650001ABFA2274FF46B76C2272B78002B00F0DD
:10566000A880FF20FCF718F83946BE20FBF7FBFCAA
:105670005648FCF745F82B78002B00F09C801C2046
:10568000FCF70AF85348FCF73BF82B78002B00F0A6
:105690009480FF20FCF700F84F48FCF731F8B6B2D1
:1056A0004B48FCF72DF8FBF781FFFBF7C2FF3146B3
:1056B000D620FBF7D8FC4948FCF722F82378002BCA
:1056C00054D1192001F01AFB2378002B4ED1192058
:1056D00001F014FB2378002B48D1192001F00EFBB8
:1056E0002378002B42D1192001F008FB2378002BEE
:1056F0003CD1192001F002FB2378002B36D1192070
:1057000001F0FCFA23788BBB192001F0F7FA23781B
:1057100063BB192001F0F2FA23783BBB192001F09A
:10572000EDFA237813BB192001F0E8FA2378EBB9DE
:10573000192001F0E3FA2378C3B9192001F0DEFA49
:1057400023789BB9192001F0D9FA237873B919206D
:1057500001F0D4FA23784BB9192001F0CFFADFF821
:105760006890DFF878A0164F2378CBB3BDE8F087B8
:105770001F2001E71F2009E7002B3FF431AFD3784A
:10578000002B3FF452AF4FF46B76A22765E740F24F
:10579000113640F2331760E740F22A364FF48D7726
:1057A0005BE74FF44D76F22757E740F25E36E82785
:1057B00053E71F2056E71F2062E71F206AE700BF5C
:1057C000A20400200000002093940008C4070020D9
:1057D000BE070020A3940008A89400088B9400083A
:1057E0002B78002B00F08280FDF72AFF1FFA80F84B
:1057F000FBF7F8FEFBF72BFF5FFA88F0FBF74CFF97
:10580000BE214120FBF72FFC4846FBF779FF3146CC
:10581000D620FBF728FCFBF7C9FEFBF70AFF504632
:10582000FBF76EFF2378002BA0D1192001F066FA58
:105830002378002B9AD1192001F060FA2378002BED
:1058400094D1192001F05AFA2378002B8ED1192017
:1058500001F054FA2378002B88D1192001F04EFA78
:105860002378002B82D1192001F048FA2378002BED
:105870007FF47CAF192001F041FA2378002B7FF4EC
:1058800075AF192001F03AFA2378002B7FF46EAF40
:10589000192001F033FA2378002B7FF467AF192029
:1058A00001F02CFA3B78002B7FF460AF192001F057
:1058B00025FA3B78002B7FF459AF192001F01EFA2E
:1058C0003B78002B7FF452AF192001F017FA3B7898
:1058D000002B7FF44BAF192001F010FA3B78002B1E
:1058E0007FF444AF192001F009FA3DE74FF01F089B
:1058F0007EE700BF2DE9F8430025A04C284625701F
:10590000FBF7CAFE2846FBF7E1FE29462846FBF7CF
:10591000CAFB9B4D40F2FF4140F28F10FBF7E0FBCA
:10592000FBF71CFCFBF782FDFBF79EFEFBF78CFDF3
:105930002120FBF7A7FE2B78002B00F0FF80FF2033
:10594000FBF7AAFE0020FBF7C1FE2B78002B00F02E
:10595000F780FF20FBF7A0FEFBF744FEFBF777FE86
:10596000BE214120FBF77FFB8648FBF7C9FEFBF712
:1059700039FEFBF76CFE2B78002B00F0E380FF2054
:10598000FBF78AFE804A50789378D178002840F05F
:10599000DB80002B40F0DB80137950790B4303430D
:1059A0007A4886783343C67833430679407933435F
:1059B000034300F0D180DFF8D481177992F805E035
:1059C00098F8036098F8040098F805C098F80280E9
:1059D00047EA01034EEA030343EA08033343034360
:1059E0005CEA030300F0BB80002940F0B38047EA83
:1059F0000E073E4330435CEA000000F0B380537969
:105A00001179624A19431079D378034350790343DB
:105A10000B4300F0AA80002940F09C8053782C2B87
:105A200014BFC021E6219E20FBF71DFB5648FBF763
:105A300067FE2B78002B00F09B801C20FBF72CFED0
:105A40005348FBF75DFE2B78002B00F09380FF207E
:105A5000FBF722FE4F48FBF753FE4C48FBF750FE86
:105A60002B78002B00F08880FF20FBF715FEFBF75A
:105A70009DFDFBF7D0FD4FF470714FF48270FBF782
:105A8000F2FA4548FBF73CFE2378002B54D119204D
:105A900001F034F92378002B4ED1192001F02EF9B2
:105AA0002378002B48D1192001F028F92378002B06
:105AB00042D1192001F022F92378002B3CD1192082
:105AC00001F01CF92378002B36D1192001F016F9CA
:105AD00023788BBB192001F011F9237863BB1920BF
